:020000040800F2
:10000000D050002069020008B72700081B2500080F
:10001000B5270008490C0008D13100080000000095
:10002000000000000000000000000000A90100081E
:100030004B0C00080000000005020008112B00080E
:10004000830200088302000883020008830200087C
:10005000830200088302000883020008830200086C
:10006000830200088302000883020008830200085C
:10007000830200088302000883020008830200084C
:1000800083020008830200088302000800000000C9
:1000900000000000000000000000000083020008D3
:1000A00083020008D52B00088302000883020008A1
:1000B000830200088302000883020008830200080C
:1000C00083020008830200088302000883020008FC
:1000D000B9270008C53100088302000800000000AD
:1000E0008302000883020008830200080000000069
:1000F0000000000000000000000000008302000873
:100100000000000083020008830200088302000848
:1001100000000000000000000000000000000000DF
:10012000830200088302000883020008830200089B
:100130008302000800000000000000000000000032
:100140000000000000000000000000008302000822
:10015000830200088302000883020008830200086B
:100160008302000883020008000000000000000075
:10017000000000000000000000000000000000007F
:1001800000000000830200080000000000000000E2
:1001900083020008DFF80CD000F0CEFA00480047D8
:1001A000053B0008D05000202C4B19680868B0E8C7
:1001B000F04F80F30988BFF36F8F4FF0000080F39A
:1001C000118870470000000008480068006880F34C
:1001D00008884FF0000080F3148862B661B6BFF360
:1001E0004F8FBFF36F8F00DF00BF00BF08ED00E04F
:1001F000DFF80C00016841F470010160704700BF36
:1002000088ED00E0EFF30980BFF36F8F134B1A689E
:100210001EF0100F08BF20ED108A20E9F04F10608B
:1002200009B44FF0500080F31188BFF34F8FBFF334
:100230006F8F04F03FFD4FF0000080F3118809BC80
:1002400019680868B0E8F04F1EF0100F08BFB0EC56
:10025000108A80F30988BFF36F8F70472C0000204D
:10026000EFF30580704700000648804706480047C6
:10027000FEE7FEE7FEE7FEE7FEE7FEE7FEE7FEE756
:10028000FEE7FEE7C52B0008950100082DE9F05FA9
:100290000546002092469B468846064681464024F5
:1002A0001BE0284641464746224600F07CF853466C
:1002B0005A46C01A914110D311461846224600F002
:1002C00063F82D1A67EB01084F46224601200021F2
:1002D00000F05AF817EB00094E41201EA4F101046A
:1002E000DFDC484631462A464346BDE8F09F40EAF7
:1002F00001039B0703D009E008C9121F08C0042AA4
:10030000FAD203E011F8013B00F8013B521EF9D28A
:100310007047D2B201E000F8012B491EFBD27047B2
:100320000022F6E710B513460A4604461946FFF7C1
:10033000F0FF204610BD00F0004230F000400AD02F
:10034000C10D01F56071C0F3160042EA0151C20807
:1003500040071143704700200146704730B50B46F7
:10036000014600202022012409E021FA02F59D42E5
:1003700005D303FA02F5491B04FA02F52844151EB9
:10038000A2F10102F1DC30BD202A04DB203A00FAA0
:1003900002F1002070479140C2F1200320FA03F3DC
:1003A000194390407047202A04DB203A21FA02F0DA
:1003B0000021704721FA02F3D040C2F1200291409F
:1003C0000843194670472DE9FE4F804681EA030035
:1003D000C00F0C46009021F0004123F00045B8EB1F
:1003E0000200A94105D24046214690461C460B46D4
:1003F000024623F00040104347D0270DC7F30A0000
:10040000C3F30A510290401A019040286BDAC3F3FB
:10041000130040F4801B0098924620B10023D2EBD9
:10042000030A63EB0B0B01985946C0F1400250469A
:10043000FFF7AAFF06460D4650465946019A00F0BE
:100440008DF910EB08006141002487EA115284EA1B
:10045000E7731A4340D0009A62B3019A012A4FEA27
:10046000075215DC001B61EB02014FF0004202EA6B
:100470000752CDE90042001C41F5801132462B465F
:1004800000F08DF903B0BDE8F08F40462146F9E752
:10049000001B61EB0201001C41F5801300185B4159
:1004A0002018A2F5001747EB030140EAD570B619F2
:1004B0006D4111E06D084FEA360645EAC0754FEA16
:1004C0000752001B61EB0201001C41F58011490835
:1004D0004FEA30000019514132462B4603B0BDE8C7
:1004E000F04F00F04DB90098012240000023D0EBFE
:1004F000020263EBE073009821464FEAE074B8EB28
:10050000000061EB0401E9E783F000435BE781F061
:10051000004158E72DE9FE4F81EA030404F000444E
:1005200021F0004100944FF0000B23F0004350EA0B
:1005300001045ED052EA03045BD0C3F30A54C1F352
:100540000A552C44A4F2F3340194A0FB0254C1F3E5
:10055000130141F48011C3F3130343F4801301FB2F
:10056000024400FB034E840A970A44EA815447EA96
:100570008357A4FB076802958D0A05FB07854FEAA0
:10058000932C04FB0C542705029D4FEA065847EABA
:100590001637B5EB08056EEB070C870E920E47EA8F
:1005A000811742EA8312A7FB0201B6EB0B0164EB51
:1005B00000042B0D43EA0C335E1844EB1C50DA4662
:1005C0005146E7FB0201C5F313044FEA0B3343EA3C
:1005D00014534FEA0432019C43EA0603A4F10C04CD
:1005E0000294009CCDE900B400F0D9F803B0BDE856
:1005F000F08F00200146F9E72DE9F04D81EA030470
:1006000004F0004B21F0004514464FF0000A23F09F
:10061000004150EA050220D054EA01021DD0C5F382
:100620000A570246C5F31303C1F31300C1F30A5678
:1006300040F4801543F48013A7EB0608101BD64640
:1006400008F2FD3873EB050002D308F1010801E060
:1006500092185B41B8F1000F03DA00200146BDE8B3
:10066000F08D00204FF48011064684460EE0171BE3
:1006700073EB050705D3121B63EB050306434CEA36
:10068000010C49084FEA300092185B4150EA01071B
:10069000EDD152EA030012D082EA040083EA050198
:1006A000084305D0101BAB4106D20122002306E00F
:1006B00000224FF0004302E06FF0010253101AEBEA
:1006C00006004CEB085110EB0A0041EB0B01BDE8B2
:1006D000F04D00F055B8C1F30A52C1F3130140F2D6
:1006E000FF3341F480119A4202DA0020014670473C
:1006F00040F233439A42A2F2334202DC5242FFF705
:1007000052BEFFF741BE000030B5041E71F1000477
:1007100004DB4FF00044404264EB0101141E73F10E
:10072000000405DB1C464FF00043524263EB040318
:10073000994208BF904230BD064C074D06E0E06884
:1007400040F0010394E8070098471034AC42F6D318
:10075000FFF724FD2C5B00084C5B0008202A06DB19
:10076000CB17203A41FA02F043EAE07306E041FA7F
:1007700002F3D040C2F1200291400843194670476D
:1007800010B5141E73F1000408DA401C41F1000199
:1007900092185B411A4301D120F0010010BD2DE9F0
:1007A000F04D92469B4611B1B1FA81F202E0B0FAE7
:1007B00080F220329046FFF7E7FD04460F4640EAFC
:1007C0000A0041EA0B0153465A46084313D011462A
:1007D00053EA010019D0C8F140025046FFF7E3FD8B
:1007E00005460E46504659464246FFF7CDFD0843A2
:1007F00005D0012004E020463946BDE8F08D0020F8
:10080000054346EAE0762C4337430A986305E40A39
:10081000A0EB08000022FD0A44EA47540A3002D542
:1008200000200146E9E7010510196941DDE90845A5
:1008300000196941BDE8F04DA2E700000F4910B56D
:100840000D4B0A7823F81200521C12F00F000870AA
:1008500001D101224A704978002231B110200021D3
:1008600033F81140491C2244C9B28142F8D3B2FB8B
:10087000F0F080B210BD0000B000002000000020A9
:10088000F8B5FF20354D8DF80000002210212846D4
:1008900000F041FB0024642301226946304801F046
:1008A000E7F8641C042CF6DB01221021284600F036
:1008B00032FB0A2000F028FA00221021284600F01E
:1008C0002AFB642302222749254801F0D1F801229E
:1008D0001021284600F01FFB322000F015FA2820D6
:1008E00000F0EAF801460C2803D01FA002F072FCC9
:1008F00024E025A002F06EFC00221021284600F022
:100900000AFB184964230222891C154801F0B0F83B
:1009100001221021284600F0FEFA20A002F05AFC25
:1009200000F0FEFA044641F2883609E000F0F8FAD9
:10093000001BB04204D91FA002F04CFC0120F8BDFE
:100940000221284600F0E2FA0128EFD000F0E8FA90
:10095000011B1FA002F03EFC0020F8BD0000024079
:10096000D00000206C5A00085B4552525D20436C59
:100970006F636B206D69736D617463683A203078C2
:10098000253032580D0A00005B4F4B5D2020436C30
:100990006F636B204F4B0D0A000000005B494E4611
:1009A0004F5D2053656C662D63616C2E2E2E0D0AF3
:1009B000000000005B4552525D2053656C662D635C
:1009C000616C2074696D656F75740D0A000000001C
:1009D0005B4F4B5D202053656C662D63616C20641A
:1009E0006F6E6520256C75206D730D0A0000000088
:1009F00000EE100A0948B8EE400AD0ED010A30EEC8
:100A0000600ADFED070A20EE200AB5EEC00AF1EE1B
:100A100010FA01D29FED030A704700000000002089
:100A2000E7905839000000007CB500F079FA0446E0
:100A30004FF47A76184D0AE000F072FA001BB042CB
:100A400005D916A002F0C6FB4FF6FF707CBD02214F
:100A5000284600F05BFA0128EED038208DF804001B
:100A60000020024600901021284600F054FA64232A
:100A7000012201A90F4800F0FBFF6423022269460E
:100A80000C4800F04BFF01221021284600F043FAE9
:100A9000BDF8000040BA7CBD000002405B574152E7
:100AA0004E5D20445244592074696D656F75740D14
:100AB0000A000000D000002011B581B000200E4CCB
:100AC0008DF8000002461021204600F024FA64232D
:100AD000012201A9094800F0CBFF642301226946E5
:100AE000064800F01BFF01221021204600F013FAF7
:100AF0009DF800001CBD000000000240D000002056
:100B00002DE9F0411AA002F065FB00263446354677
:100B10004FF6FF77FFF788FFB84201D00644641C08
:100B2000642000F0F1F86D1C142DF3DBD4B1B6FB9A
:100B3000F4F081B200EE101A144A154BB8EE400AD8
:100B4000002082ED010A00BF23F81010401C10287D
:100B5000FADB0020107001205070BDE8F0410DA0BC
:100B600002F038BBBDE8F04110A002F033BB00003A
:100B70005B544152455D20436F6C6C656374696ED4
:100B800067207A65726F2E2E2E0D0A00000000205D
:100B9000B00000205B544152455D205A65726F20C1
:100BA0005241573D25750D0A000000005B5441522B
:100BB00045204552525D204E6F2076616C6964205D
:100BC00073616D706C65730D0A0000001CB5144CE8
:100BD0000221204600F09AF910B14FF6FF701CBDBB
:100BE00038208DF804000020024600901021204695
:100BF00000F091F96423012201A90A4800F038FFAE
:100C0000642302226946074800F088FE0122102171
:100C1000204600F080F9BDF8000040BA1CBD00007D
:100C200000000240D000002010B5FFF7CFFFA0F574
:100C30007F41FF3905D0FFF701FEBDE81040FFF707
:100C4000D7BEBFEE000A10BDFEE7704772B6FEE7E2
:100C50002DE9F0410446876D00F062F9064694F8EC
:100C600035000025022806D08020606584F83450C5
:100C70000120BDE8F0812068016821F016010160C3
:100C80002068416921F080014161206C08B9A06CA5
:100C900020B12068016821F0080101602068016826
:100CA00021F0010101600CE000F03AF9801B0528F9
:100CB00007D920206065032084F8350084F834507B
:100CC000D7E720680068C007EED194F85C103F2099
:100CD0008840B860012084F8350084F83450002042
:100CE000C7E790F83510022903D080214165012023
:100CF0007047052180F835100068016821F0010176
:100D0000016000207047000070B5044600F008F94B
:100D10000546601C02D004480078044400F000F945
:100D2000401BA042FAD370BD1C0000202DE9F84FF3
:100D3000DFF8B8A10022012403254FF00F090AF1C2
:100D4000040BAAF1040E00BF0B6804FA02F633404C
:100D5000B34273D10F7907F00307012F01D0022F9F
:100D600016D187684FEA420805FA08FC27EA0C0703
:100D7000D1F80CC00CFA08FC4CEA070CC0F808C00B
:100D80004768B7430E79C6F3001696403E43466067
:100D90000E79F643B6070DD0C768560005FA06FC73
:100DA00027EA0C07D1F808C00CFA06FC4CEA070C3D
:100DB000C0F80CC00E7906F00306022E10D1D6083A
:100DC00000EB8608D8F8206057074FEAD76C09FA7D
:100DD0000CF7BE430F6907FA0CF73743C8F82070C9
:100DE00006684FEA420C05FA0CF7BE430F7907F08C
:100DF000030707FA0CF7374307604E6816F4403FC5
:100E00006DD03B4E376847F480473760366822F034
:100E1000030706F480460096364E07EB060CDCF816
:100E2000086897073F0F09FA07F826EA0806DFF86F
:100E3000C880404503D14FF000081EE04FE0DFF8C6
:100E4000BC80404502D14FF0010816E0DFF8B080C9
:100E5000404502D14FF002080FE0DFF8A88040457E
:100E600002D14FF0030808E0DFF89C80404502D132
:100E70004FF0040801E04FF0070808FA07F848EAC5
:100E80000608CCF80888DAF800605746D1F804C0A4
:100E90009E435FEACC2C00D51E433E60DBF8006029
:100EA0005F46D1F804C09E435FEA8C2C00D51E43F8
:100EB0003E60DEF800607746D1F804C09E435FEAEA
:100EC0008C3C00D51E433E60084F083F3E68D1F879
:100ED00004C09E435FEACC3C00D51E433E60521CDA
:100EE000102AFFF431AFBDE8F88F0000083C014044
:100EF000443802400030014000000240000402403B
:100F000000080240000C0240001002400069084046
:100F100000D0012070470AB1816170470904FBE7E6
:100F200001488068704700001C000020024881686A
:100F300002781144816070471C0000200B4810B5F6
:100F4000016841F400710160016841F48061016051
:100F5000016841F480710160032000F099F80F20CE
:100F600000F006F800F04AF8002010BD003C0240F6
:100F700030B505461C4887B00024016841F00101E6
:100F80000160006806A900F00100009001A800F0CF
:100F90002BF900F059F91549154AB0FBF1F1154844
:100FA000491E026040F2E732C0E90324C0E901149F
:100FB000846100F00AFF040012D10E4800F034FFF3
:100FC00004000DD1192000F035F8102D07D20022B1
:100FD0002946192000F03CF80748056000E001248C
:100FE00007B0204630BD00004438024040420F00A8
:100FF00000000140B0030020200000200C4882B017
:10100000016841F480410160006800F48040009074
:101010000748001F016841F080510160006800220C
:1010200000F0805000900F21901E02B000F010B828
:1010300044380240002809DB00F01F0201219140E2
:101040004009800000F1E020C0F800117047000066
:10105000F0B40E4B1B680C46C3F30223C3F1070523
:10106000042D00D90425191D072901D2002300E011
:10107000DB1E012606FA05F1491E214099409E40DB
:10108000761E16403143F0BC02F0B4B80CED00E01F
:10109000064900F0070208684FF6FF03184040EACF
:1010A0000220034A10430860704700000CED00E086
:1010B0000000FA052DE9F0470E46050065D0DFF87F
:1010C0001481D8F80000F7B200F00700B04207D250
:1010D00088F80070D8F8000000F00700B04254D142
:1010E00028683D4C810712D5400703D5206840F49D
:1010F000E05020602878000703D5206840F4604065
:1011000020602068A96820F0F0000843206028785B
:10111000C0072DD0304968680839012812D002284C
:1011200013D0032811D00968890700292DDA216816
:1011300021F0030101432160FFF7F2FE814641F2F5
:10114000883A0EE009688903EFE709688901ECE74E
:10115000FFF7E6FEA0EB0901514502D90320BDE8E7
:10116000F0872068696800F00C00B0EB810FEFD1C8
:10117000D8F80010404601F00701B14207D90770C6
:10118000006800F00700B04201D00120E7E72878AE
:10119000400705D52068E96820F4E0500843206046
:1011A0002878000706D52068296920F4604040EAC5
:1011B000C100206000F058F82168084AC1F303110B
:1011C000515CC8400649086006480068FFF7D0FE39
:1011D0000020C4E7003C024008380240E05A000802
:1011E00028000020200000200F2202600C4A136813
:1011F00003F003034360136803F0F0038360136894
:1012000003F4E053C36012684FF4E05303EAD202E0
:1012100002610448006800F00700086070470000A1
:1012200008380240003C024004480549006809684B
:10123000044AC1F38221515CC84070472800002055
:1012400008380240F05A0008044805490068096857
:10125000044AC1F34231515CC84070472800002065
:1012600008380240F05A0008154810B5006810F020
:101270000C02144813D04110042A0FD0082A0ED1B2
:101280000F4C241F2268236802F03F025B0207D53F
:101290002068C0F38810A0FB010106E0084610BDDD
:1012A0002168C1F38811A1FB00010023FEF7EEFFC6
:1012B0002168C1F30141491C4900B0FBF1F010BDA8
:1012C000083802400024F4002DE9F84F04006ED0E5
:1012D0002078DFF84C93C007A9F104054AD009F142
:1012E00004000168C1F38101012908D00068C0F33E
:1012F000810002280AD1D9F80000400206D52868EA
:10130000800337D560680028E1D033E06068B0F52D
:10131000803F10D0B0F5A02F286810D020F4803086
:101320002860286820F4802028606068A8B1FFF752
:10133000F7FD06460DE0286840F48030F4E740F4FD
:1013400080202860F7E700BFFFF7EAFD801B6428D4
:1013500073D828688003F7D50CE0FFF7E1FD064657
:1013600005E000BFFFF7DCFD801B6428F0D828688B
:101370008003F7D42078DFF8AC8280074FF0000AB2
:101380003ED5A748001D016811F00C0F08D0006879
:10139000C0F3810002280BD1D9F80000400207D425
:1013A0002868800716D5E068012800D112E033E1F3
:1013B000E068B8B10120C8F80000FFF7B1FD0646AB
:1013C00005E000BFFFF7ACFD801B0228C0D82868ED
:1013D0008007F7D52868216920F0F80040EAC100AD
:1013E00028600DE0C8F800A0FFF79AFD064604E06B
:1013F000FFF796FD801B02281FD828688007F7D4C6
:101400002078000722D5864F87486169703771B10F
:1014100001210160FFF784FD064604E0FFF780FD2F
:10142000801B022809D838688007F7D50EE0C0F87D
:1014300000A0FFF775FD064605E082E0FFF770FDAE
:10144000801B02287DD838688007F7D420784007B1
:1014500068D5DFF8CCB100270BF13C0BDBF80000BE
:10146000C0000BD4DBF8001041F08051CBF8001025
:10147000DBF80000012700F0805000906B4E3068D0
:10148000C00510D4306840F480703060FFF748FD2C
:10149000009005E0FFF744FD0099401A022850D85B
:1014A0003068C005F6D55E4EA0686C3601280FD0B6
:1014B0000528306810D020F001003060306820F03E
:1014C00004003060A068B8B1FFF72AFD00900FE07B
:1014D000306840F00100F4E740F004003060F7E7C6
:1014E000FFF71EFD0099411A41F28830814266D80B
:1014F00030688007F4D50EE0FFF712FD009007E09A
:10150000FFF70EFD0099411A41F28830814256D80A
:1015100030688007F4D42FB1DBF8001021F080513F
:10152000CBF80010A069C8B33D49091D0968C1F393
:10153000810102294AD00228504607D0C8F860002D
:1015400000E03CE0FFF7ECFC04463BE04746C8F80F
:101550006000FFF7E5FC064605E000BFFFF7E0FC92
:10156000801B02282BD828688001F7D4D4E9070112
:101570000843A16A2E4A490802EB0141626A41EA26
:101580008211084394F82C1040EA0161C9F8001058
:1015900001203866FFF7C4FC044606E03EE000BFC9
:1015A000FFF7BEFC001B022809D828688001F7D588
:1015B00034E000BFFFF7B4FC001B022802D903206F
:1015C000BDE8F88F28688001F4D427E00128F7D01F
:1015D000D9F80000E26900F4800191421CD1226A2E
:1015E00000F03F01914217D147F6C071626A014095
:1015F000B1EB821F10D1A26A4FF0FF3300F44031EB
:1016000003EB5202B1EB024F06D194F82C1000F01C
:101610007060B0EB016F01D00120D1E70020CFE76F
:101620000438024000004742800E474200700040EC
:101630000000FFFF7047000038B5016804464A68A3
:101640008868C043430606D5C30704D1D3435B066D
:1016500001D4216C05E0830708D4D3431B0605D4CD
:10166000616C01B02046BDE830400847830603D5D1
:10167000430601D5C30551D4D3439B064ED443063C
:101680000AD494F85130032B49D0636D43F004031E
:101690006365CB688B680093830609D4636D43F060
:1016A000010363658B6800930B6823F040030B60B4
:1016B000C00506D4606D40F0080060652068806851
:1016C0000090606D002829D02068416821F0E00179
:1016D0004160012084F85100900701D4D00722D046
:1016E0002068416821F003014160114DE06C40B178
:1016F0000565E06CFFF7F5FA18B1606D40F0400049
:101700006065A06C002809D00565A06CFFF7E9FAB8
:10171000002803D0606D40F04000606538BDC868A7
:101720008868009038BD2046FFF784FF38BD000070
:10173000C527000870B5040009D0606A002540B1D3
:1017400025616561A56294F8510040B10CE001206B
:1017500070BD6068B0F5827FF4D0E561F2E784F88F
:101760005050204600F044F8022084F851002068D0
:10177000016821F040010160A088218900F4827095
:1017800001F404410843A18901F400610843217C6C
:1017900001F002010843217D01F001010843218B82
:1017A00001F400710843217F01F03801084394F8E7
:1017B000201001F080010843218D01F400510843FD
:1017C00021680860A069042101EA104094F82410FF
:1017D00001F010010843216848602068C16921F4C4
:1017E0000061C1616565012084F85100002070BD71
:1017F000F0B587B0044614216846FEF791FD4048D5
:10180000236800243F4902250326052783421AD175
:101810003C481430026842F480520260006800F4D0
:1018200080500590086840F001000860086802AA2E
:1018300000F001000590E020CDE9000582E8D0002D
:101840006946314858E02F4ADFF8C0C010323048AE
:10185000634535D1136843F480431360126802F482
:10186000804205920A6842F004020A600A6802F0A7
:10187000040205920A6842F002020A60096802AB9B
:1018800001F0020105910C21CDE9001583E8D0009B
:101890006946FFF74BFA4FF48060CDE9000502ABD3
:1018A000694683E8D0001B48FFF740FA0022052173
:1018B0002420FFF7CDFB2420FFF7BCFB07B0F0BDD1
:1018C000154FBB42FAD1136843F40043136012680A
:1018D00002F4004205920A6842F004020A600968B4
:1018E000029401F0040105914FF4E051CDE9001597
:1018F0000621CDE903616946FFF718FADEE700002B
:101900000030014030380240000002400038004002
:101910000008024000040240003C00402DE9F84F5E
:10192000044690F851001D4616460F46012838D14E
:10193000002F77D0002E75D060684FF00408B0F506
:10194000827F01D1A06810B3FFF7EAFA824694F8CB
:101950005000012825D04FF0010984F8509084F8F8
:1019600051804FF00008C4F85480A763A687E6872B
:10197000C4F83080A4F83480A4F83680C4F84080DD
:10198000C4F84480A068B0F5004F0CD015E084F88E
:101990005180009313460A46204600F01CF9BDE82A
:1019A000F88F0220FBE72068016821F04001016008
:1019B0002068016821F480410160206801684906BF
:1019C00003D4016841F040010160E068C0B134E037
:1019D00020688168C90709D0007BA16B0870A06BE3
:1019E000401CA063E08F401EE08709E0FFF798FAF3
:1019F000A0EB0A00A84202D3681C01D032E085B3F4
:101A0000E08F0028E4D11BE020688168C9070AD074
:101A1000C068A16B0880A06B801CA063E08F401E93
:101A2000E0870AE01BE0FFF77BFAA0EB0A00A84280
:101A300002D3681C01D015E09DB1E08F0028E3D1EE
:101A400052462946204600F0C5FE08B120206065B8
:101A500084F8519084F85080606D00289FD0012058
:101A60009DE7FFE784F8519084F85080032096E7C3
:101A70002DE9F84F984616468A460446FFF750FA75
:101A8000814694F8510001281ED1BAF1000F73D09D
:101A9000002E71D094F85000012815D0012784F849
:101AA0005070032084F8510000256565C4F830A00B
:101AB000A686E686A563A587E58765642564A06894
:101AC000B0F5004F03D00CE00220BDE8F88F20688D
:101AD000016821F0400101602068016841F4804103
:101AE000016020680168490603D4016841F04001A3
:101AF0000160E068B0F5006F606803D048B3012E64
:101B000027D047E008B1012E1FD1206B2168008843
:101B1000C86006E020688168890709D5216B0988BB
:101B2000C160206B801C2063E08E401EE0860CE0CC
:101B3000FFF7F6F9A0EB0901414503D3B8F1FF3FE8
:101B400003D035E0B8F1000F32D0E08E0028E1D1AB
:101B500023E0206B21680078087306E02068816824
:101B600089070AD5216B09780173206B401C20631B
:101B7000E08E401EE0860DE02BE0FFF7D1F9A0EBF0
:101B80000901414503D3B8F1FF3F03D010E0B8F19C
:101B9000000F0DD0E08E0028E0D14A464146204695
:101BA00000F046FE08B120206065A06830B109E071
:101BB00084F8517084F85050032086E72068C1688B
:101BC0008068009084F8517004F8505F60680028C5
:101BD000F3D0012079E72DE9FF4F81B01D469346F0
:101BE00004464FF001090E9EFFF79AF9074694F854
:101BF00051006168012806D0B1F5827F3CD1A1680F
:101C0000C9BB042838D10298002871D0BBF1000F5D
:101C1000FBD0002DF9D094F8500001282CD04FF0C3
:101C2000010A84F850A094F85100042802D005203D
:101C300084F851004FF00008C4F85480C4F838B05C
:101C4000E587A58702992163E586A586C4F84080CB
:101C5000C4F8448020680168490603D4016841F053
:101C600040010160E068B0F5006F606808D0F0B333
:101C7000012D49D081E0FFE7022005B0BDE8F08FDB
:101C800008B1012D39D1206B21680088C860206B14
:101C9000801C2063E08E401EE0862EE02068816874
:101CA00089070FD5E18E69B1B9F1010F0AD1216B16
:101CB0000988C160206B801C2063E08E401EE08696
:101CC0004FF0000920688168C9070CD0E18F51B13D
:101CD000C068A16B0880A06B801CA063E08F401ED1
:101CE000E0874FF00109FFF71BF9C01B01E00BE093
:101CF00067E0B04201D3701C50D1E08E0028CDD1F6
:101D0000E08F0028CAD13EE0206B2168007808737C
:101D1000206B401C2063E08E401EE0862DE0206892
:101D2000816889070FD5E18E69B1B9F1010F0AD138
:101D3000216B09780173206B401C2063E08E401EEC
:101D4000E0864FF0000920688168C9070CD0E18F58
:101D500051B1C068A16B0870A06B401CA063E08FFC
:101D6000401EE0874FF00109FFF7DAF8C01BB042D0
:101D700002D3701C01D011E086B1E08E0028CED1D4
:101D8000E08F0028CBD13A463146204600F050FD86
:101D900050B12020606584F8508012E084F851A092
:101DA00084F85080032068E7A06818B92068C168EB
:101DB0008068009084F851A084F85080606D0028FD
:101DC000F1D0012059E77047704710B5040003D0E7
:101DD00094F83D0010B107E0012010BD002084F808
:101DE0003C00204600F01EF8022084F83D00211D32
:101DF000206800F0F5FE012084F8460084F83E00DB
:101E000084F83F0084F8400084F8410084F84200E0
:101E100084F8430084F8440084F8450084F83D00C9
:101E2000002010BD7047000090F83D10012901D03E
:101E300001207047022180F83D100168CA6842F015
:101E40000102CA6000680E4988420ED0B0F1804F8E
:101E50000BD00C49884208D00B49884205D00B4969
:101E6000884202D00A49884204D1816801F0070102
:101E7000062903D0016841F001010160002070478C
:101E8000000001400004004000080040000C004039
:101E90000040014070472DE9F04104460068C668E3
:101EA00005694FF00007A90713D5B10711D5F91E31
:101EB000016101202077206880698007204602D0D8
:101EC000FFF7E8FF04E000F07EF8204600F07CF821
:101ED0002777680716D5700714D521686FF00400BE
:101EE0000861022020772068806910F4407F204636
:101EF00002D0FFF7CFFF04E000F065F8204600F0C5
:101F000063F82777280715D5300713D521686FF0B8
:101F100008000861042020772068C06980072046F7
:101F200002D0FFF7B7FF04E000F04DF8204600F0C4
:101F30004BF82777E80616D5F00614D521686FF020
:101F400010000861082020772068C06910F4407FE5
:101F5000204602D0FFF79EFF04E000F034F8204650
:101F600000F032F82777E80708D0F00706D021689C
:101F70006FF001000861204600F028F8280608D517
:101F8000300606D521686FF0800008612046FFF713
:101F90001AFF680608D5700606D521686FF0400064
:101FA0000861204600F01CF8A8060AD5B00608D53E
:101FB00021686FF0200008612046BDE8F041FFF77E
:101FC00003BFBDE8F0817047704700000068034917
:101FD000884201D1FEF7AABF70470000000001400F
:101FE0007047704710B50068094988420FD1094908
:101FF000002048804FF480710748FEF791F90549A9
:102000000122BDE81040491C044800F0F9B910BD98
:102010000010014018000020D8010020D802002044
:10202000F8B5016804460868CA684B6910F00F0FDC
:102030004FF0000559D003F0010602F490773743C2
:1020400065D0C10705D0D10503D5616C41F0010110
:102050006164410705D5D90703D0616C41F00201E5
:102060006164810705D5D90703D0616C41F0040193
:102070006164010707D502F02001314303D0616C90
:1020800041F008016164616C00293AD0800604D5F2
:10209000900602D5204600F05AFF20684069616C26
:1020A000C0F38010090700D460B3204600F028FF79
:1020B00020684069400621D52068143050E8001F90
:1020C00021F0400140E80012002AF5D1E06BA8B1F0
:1020D00072490165E06BFEF704FE002811D0E06B49
:1020E000016D01B0BDE8F040084783060FD59306A7
:1020F0000DD52046BDE8F84000F029BF2046FFF787
:1021000071FFF8BD2046FFF76DFF6564F8BD266BD3
:102110002023012E7ED1C6067CD5D6067AD5086846
:102120004868009048694FF0020640064DD5E26BC2
:10213000106840684FF480770004000C3AD0A18DFD
:10214000814237D9E085D069B8422DD020680C3063
:1021500050E8001F21F4807140E80012002AF5D1F8
:102160002068143050E8001F21F0010140E80012FF
:10217000002AF5D12068143050E8001F21F04001FA
:1021800040E80012002AF5D184F842302563206827
:102190000C3050E8001F21F0100140E80012002A26
:1021A000F5D1E06BFEF754FD6663A08DE18D401A1A
:1021B00081B206E0A18D8142A8D1D069B842A5D1F3
:1021C00066632046FFF70DFFF8BDA08DE18D401A34
:1021D00081B2E08D0028F7D00029F5D020680C30BE
:1021E00050E8002F22F4907240E80027002FF5D12C
:1021F0002068143050E8002F22F0010240E8002748
:10220000002FF5D184F84230256320680C3050E867
:10221000002F00E006E022F0100240E80023002B2F
:10222000F3D1CDE705062BD5150629D594F8410045
:102230002128C9D1A068B0F5805F01D12069B0B173
:10224000206A411C2162216800784860E08C401EB1
:102250000004000CE084B7D12068C16821F080013F
:10226000C1602068C16841F04001C160F8BD206ACA
:102270000088C0F308004860206A801C2062E5E7FF
:102280004006F3D55006F1D5CA68204622F0400238
:10229000CA6084F8413000F03FF9F8BDF32E000821
:1022A00070B5040004D094F84100002510B106E098
:1022B000012070BD84F84050204600F023F824200F
:1022C00084F841002068C16821F40051C1602046B3
:1022D00000F09EFE2068016921F4904101612068B0
:1022E000416921F02A0141612068C16841F400512F
:1022F000C1606564202084F8410084F84200656371
:10230000002070BDF0B587B0044614216846FEF782
:1023100007F83749DFF8D4C027680022344B143956
:102320000224032507263348674522D11F6847F05A
:1023300010071F601B6803F0100305930B6843F040
:1023400001030B60096802AF01F001010591690208
:10235000CDE9001487E864006946FEF7E7FC002237
:1023600007212520FEF774FE2520FEF763FE07B047
:10237000F0BDDFF884C0674519D11D4B1B1F1F68D6
:1023800047F400371F601B6803F4003305930B68A4
:1023900043F001030B60096802AB01F001010591F4
:1023A0000C21CDE9001483E8640069461BE0134E5C
:1023B000B742DCD11E6846F020061E601B6803F0A1
:1023C000200305930B6843F001030B600968029238
:1023D00001F0010105914FF4C051CDE9001408212D
:1023E000CDE903516946FEF7A1FCC0E700100140AA
:1023F0004438024000000240004400400014014004
:1024000090F84230202B01D00220704721B11AB140
:102410000023036300F082BE0120704710B50068FE
:10242000114988421ED1114800224188FF290BD250
:102430000F4C43786354491C89B241800A2B09D15F
:1024400062540121017005E042804FF48071084818
:10245000FDF766FF05490122BDE81040491C05480B
:10246000FFF7CEBF10BD0000001001401800002093
:10247000D8010020D80200202DE9F843044690F846
:102480004100984616460D46202802D00220BDE89D
:10249000F88385B17EB100206064212084F841007A
:1024A000FEF73EFDA6848146E684A0682027B0F5AD
:1024B000805F02D003E00120E9E7206910B12E46D9
:1024C00000250EE000260CE08021204600F041FEB1
:1024D000A8B9C6B116F8010B21684860E08C401E0F
:1024E000E084E08C4B464FF00002CDF800800028DD
:1024F000EAD14FF04001204600F02BFE40B184F8B5
:1025000041700320C3E735F8020BC0F30800E3E78E
:1025100084F841700020BAE77047FEE710B5042147
:102520000C4A084601F012FC0B4C0A4A0021A0603C
:10253000483A0A4801F06AFC064A2060243A002121
:10254000074801F063FC60600248183001F02CFB82
:10255000E06010BDB85A00080800002059290008A2
:10256000812A00082DE9F04186B014216846FDF764
:10257000D7FE26480024016841F08001016001680F
:1025800001F080010591016841F0040101600168DA
:1025900001F004010591016841F001010160016849
:1025A00001F001010591016841F00201016000683C
:1025B000174F00F002000590012210213846FEF767
:1025C000AAFCDFF850804FF44076012231464046A5
:1025D000FEF7A1FC022001258DE83100694638464E
:1025E000FEF7A4FB10200090CDE90154694638465F
:1025F0000394FEF79BFB0096CDE9015469464046E3
:102600000394FEF793FB06B0BDE8F081303802403A
:102610000000024000080240104810B50E49016059
:102620004FF482714160002102228160C0E90312EF
:1026300001224261520282612822C0E907214162DF
:1026400081620A21C162FFF775F8002803D0BDE856
:102650001040FEF7FBBA10BD00300140D000002052
:10266000104810B50E4901604FF48271416000219D
:1026700002228160C0E9031201224261520282619A
:102680001022C0E90721416281620A21C162FFF77D
:1026900051F8002803D0BDE81040FEF7D7BA10BDAE
:1026A0000038004028010020104810B50E49016094
:1026B0004FF482714160002102228160C0E903125F
:1026C00001224261520282611022C0E90721416267
:1026D00081620A21C162FFF72DF8002803D0BDE80E
:1026E0001040FEF7B3BA10BD003C0040800100204E
:1026F0000C4810B50A4901604FF4E13141600021F6
:1027000081600C22C160C0E904128161C161FFF7E0
:10271000C7FD002803D0BDE81040FEF797BA10BDF2
:1027200000100140D80200200C4810B50A49016091
:102730004FF4E1314160002181600C22C160C0E9A9
:1027400004128161C161FFF7ABFD002803D0BDE831
:102750001040FEF77BBA10BD00440040200300206B
:10276000124810B5104901604FF4E1314160002179
:1027700081600C22C160C0E904128161C161FFF770
:102780008FFD08B1FEF762FA002201214720FEF713
:102790005FFC4720FEF74EFCBDE8104001220449D3
:1027A0000248FFF72DBE000000140140680300201E
:1027B00019000020FEE7FEE70148FEF73DBF0000DC
:1027C0002801002010B5806B0021C187C186FEF76B
:1027D00031FF10BDF8B5044640684FF4827398424B
:1027E00021D1A0684FF48065B0F5004F01D0A84218
:1027F0000AD12068066826F04006066060689842A4
:1028000011D1A068A8420ED000920B460022802170
:10281000204600F043F8002804D0606D40F020000E
:1028200060650320F8BD00920B4600220121EFE70E
:10283000F8B515460E460B460092044601220221C9
:1028400000F02CF8A0B9134813490068B0FBF1F070
:102850004FF47A71484300906068B0F5827F0DD1E3
:102860003346002280212046009500F017F870B111
:10287000606D40F0200060650320F8BD009830B125
:10288000401E009020688068C0430006F6D50020F6
:10289000F8BD00002800002000366E012DE9F84345
:1028A0001E46914688460446089DFEF739FB401BAC
:1028B000351AFEF735FB074626480068C0F3CB30D3
:1028C00068430AE0701C09D0FEF72AFBC01BA8422F
:1028D0000FD275B10098B8B3401E0090206881688F
:1028E00038EA010033D000214945EBD10020BDE892
:1028F000F8832068416821F0E00141606068B0F52C
:10290000827F0BD1A068B0F5004F02D0B0F5806F88
:1029100004D12068016821F040010160A06AB0F58F
:10292000005F09D12068016821F40051016020682E
:10293000016841F400510160012084F85100002039
:1029400084F850000320D2E7FFE70025C6E7012105
:10295000CAE70000280000202DED028B82B09FED19
:10296000220A8DED000AFDF78BFFFEF7C9F81F4C18
:102970000221E06801F02EF91DA000F02BFC4FF4BD
:10298000FA7001F0DAF847F2305000F009FA22A0AC
:1029900000F020FCE06801F0FCF8C0070BD000F06C
:1029A00099FA0121E06801F0D5F821A000F012FCAD
:1029B000002001F070FA00231A466946A06801F071
:1029C00093F960B90098FDF7B6FC41EC180B00F0E4
:1029D00068F9014653EC182B21A000F0FBFB3220D4
:1029E00001F0ABF8D6E7000000000000080000206E
:1029F0005B4D4F544F525D20E58EBBE79AAEE5AE7E
:102A00008CE68890EFBC8CE58786E5A487E590AFDF
:102A1000E58AA85C720A00005B4D4F544F525D205E
:102A2000E794B5E69CBAE590AFE58AA80D0A0000E8
:102A30005B4D4F544F525D20E68B89E58A9BE588BC
:102A4000B0E8BEBEE99990E588B6EFBC8CE794B5D6
:102A5000E69CBAE5B7B2E5819CE6ADA20D0A00009E
:102A60005B4D4F4E5D20763D256C64202074656E75
:102A700073696F6E3D252E3366206B670D0A00006B
:102A800008B59FED180A184D00248DED000A631E4D
:102A900022460221E86801F0C7F814A000F09AFB72
:102AA0001A4E00BFFEF7C0F8B5EEC00AF1EE10FAFC
:102AB00013DB8DED000A00231A466946A86801F071
:102AC00071F90098B04207DD641CE4B2032C04D312
:102AD0000121E86801F07EF80024142001F02DF8AF
:102AE000E0E7000000000000080000205B54454EB5
:102AF00053494F4E5D20E5BC80E5A78BE68B89E509
:102B00008A9BE79B91E6B58B5C720A0000006040EF
:102B100010B54FF0E020006902F0DEFD012803D07F
:102B2000BDE8104002F09EBA10BD000030B593B071
:102B300030216846FDF7F4FB14210CA8FDF7F0FBEB
:102B40001E480024016841F080510160006800F0D7
:102B5000805011901A48016821F4404141F400412D
:102B600001600068022500F44040119001200090AF
:102B7000000401908001CDE90650082008904FF430
:102B8000A870099004200A900B906846FEF79CFB01
:102B900008B172B6FEE70F20CDE90C054FF4805066
:102BA000CDE90E4002210CA81094FEF783FA00280C
:102BB00001D072B6FEE713B030BD000040380240CD
:102BC000007000400248016841F4700101607047E4
:102BD00088ED00E00148FFF75EB90000B003002077
:102BE000F0B502681F4B204C204D214E4FF0804C19
:102BF000984207D0604505D0A04203D0A84201D03A
:102C0000B04203D122F070074A683A43984210D08C
:102C100060450ED0A0420CD0A8420AD0B04208D0E5
:102C2000144CA04205D0144CA04202D0134CA04238
:102C300003D122F44074CA6822434C6922F0800216
:102C400022438C68C4620C688462984201D109698D
:102C50000163016841F004010160012141610260EA
:102C6000F0BD0000000001400004004000080040EA
:102C7000000C004000400140004401400048014079
:102C800008B1042200E000220021084600F0FAB852
:102C900008B500206A462121009000F0B3F80098A2
:102CA00008BD08B500206A462221009000F0AAF86D
:102CB0000098010202D540F07F40009008BD00005E
:102CC0002DE9F0410122314D140221462846FEF73C
:102CD00022F90A20FEF718F807220121002000F04F
:102CE000D1F80020FFF7CCFF294A1021002000F086
:102CF000C9F8C3226C21002000F0C4F8254A7021D5
:102D0000002000F0BFF8244A1421002000F0BAF897
:102D10004FF420226D21002000F0B4F80522232179
:102D2000002000F0AFF841F288363246242100201E
:102D300000F0A8F800222521104600F0A3F8174F54
:102D400026213A46002000F09DF83A46282100202E
:102D500000F098F832462A21002000F093F80A2269
:102D60002B21002000F08EF84FF47A722C210020E5
:102D700000F088F800222721104600F083F8214651
:102D80002846BDE8F0410022FEF7C5B80008024021
:102D9000020807001E260CC4FFFF0F00400D0300B1
:102DA00010B5040001D4024600E062420E4882429F
:102DB00000D902462721002000F064F8002C02DD33
:102DC0004FF0010202E004DA4FF002024FF020015E
:102DD00003E04FF000024FF02701BDE810404FF034
:102DE000000000F04FB8000020A10700002805D126
:102DF0000A464FF400710248FEF78DB87047000094
:102E00000008024070B586B0002306468DF80F30EA
:102E10008DF80E3001F07F008DF80D308DF80C002C
:102E200014468DF8103019463046FFF7DFFF642551
:102E3000052301AA03A912480095FEF7CCFE012143
:102E40003046FFF7D3FF00213046FFF7CFFF0523C1
:102E500001AA03A90A480095FEF7BDFE01213046EC
:102E6000FFF7C4FFDDF805009DF8081000BA20F058
:102E7000FF00084320609DF9040006B070BD00000B
:102E80008001002010B586B00446100A8DF80F00AE
:102E9000100C8DF80E00100E8DF80D0041F0800022
:102EA0008DF80C008DF8102000212046FFF79EFFC2
:102EB00064200090052301AA03A90548FEF78BFEB4
:102EC00001212046FFF792FF9DF9040006B010BDD6
:102ED0008001002010B5002227211046FFF7D2FF05
:102EE000FFF7D6FE02462D21BDE810400020FFF777
:102EF000C9BF10B5806B0021C185FFF773F810BD05
:102F000001680C3151E8002F22F4907241E800234F
:102F1000002BF5D10168143151E8002F22F0010295
:102F200041E80023002BF5D1016B012909D101688B
:102F30000C3151E8002F22F0100241E80023002B51
:102F4000F5D1202180F8421000210163704708B5B7
:102F500090F84210222901D0022008BD82684FF467
:102F600080539A4201D1016921B1816A9A421BD0F2
:102F70004AB10AE00268816A5268C2F308020A8014
:102F8000816A891C08E0026972B10268526802F025
:102F90007F020A70816A491C8162C18D491E090441
:102FA000090CC18503D01BE002685268F1E7016893
:102FB000CA6822F02002CA600168CA6822F48072DE
:102FC000CA6001684A6922F001024A61202180F842
:102FD000421000214163026B012A03D0FFF71EFA61
:102FE000002008BD016301680C3151E8002F22F078
:102FF000100241E80023002BF5D101680A68D206CF
:1030000002D50A6849680091818DFEF7EAFFE7E77B
:1030100070B5044600680169E26821F4405111432B
:1030200001612169A068E2690843616911430843AD
:103030002168CA6849F20C639A430243CA60206857
:103040004169A26921F4407111434161314920680D
:10305000884202D03049884202D1FEF7F5F801E0FB
:10306000FEF7E2F8E2690023192164253226B2F561
:10307000004F626828D0A0FB0101930F9200FDF77A
:1030800005F90146B0FBF5F06FF01802504301EB73
:10309000800006EB0010B0FBF5F000F0F002B1FB91
:1030A000F5F002EB0012B1FBF5F06FF01803584396
:1030B00001EB800006EB0010B0FBF5F000F00F0014
:1030C00021681044886070BDA0FB010192185B412B
:1030D000FDF7DCF80146B0FBF5F00201B1FBF5F0BD
:1030E0006FF01803584301EB800006EBC000B0FB03
:1030F000F5F000F0F80002EB4002B1FBF5F05843A8
:1031000001EB800006EBC000B0FBF5F000F007001B
:10311000D6E7000000100140001401408162828562
:10312000C28500214164222180F84210016921B149
:103130000168CA6842F48072CA6001684A6942F054
:1031400001024A610068C16841F02001C1600020AD
:1031500070472DE9F843984617460D460446089EE9
:1031600024E0701C22D0FDF7DBFEA0EB0800B0428B
:103170001AD8CEB12068C168490717D5802D15D05F
:10318000402D13D00168C94309070FD401680025F9
:10319000406800902046FFF7B3FE0820606484F882
:1031A00040500120BDE8F8830320FBE72068006859
:1031B00035EA000004D00020B842D2D00020F1E768
:1031C0000120F9E70148FEF72BBF0000D8020020DC
:1031D000FEE700000FB4054B10B503A9044A02989E
:1031E00000F0EAF810BC5DF814FB0000E93A0008B2
:1031F000AC0000200907090E002804DB00F1E020E4
:1032000080F80014704700F00F0000F1E02080F813
:10321000141D704702E008C8121F08C1002AFAD125
:1032200070477047002001E001C1121F002AFBD146
:10323000704700002DE9FF5F82B00021DDE9043016
:10324000020DDDF840B0034318D044F61050A2F24E
:10325000FF3242431514119801281FD0A5EB0B0033
:10326000401C5FEA000A4FF000064E4FDFF838912D
:10327000B046504615D5CAF1000413E01198012458
:103280004AA3012801D16FEA0B010298119AC0E903
:103290000031C0E9024206B0BDE8F09FCBF100006A
:1032A000DFE704460021404A491842EB0450CDE9CB
:1032B000001012E0E00707D032463B464046494640
:1032C000FDF728F98046894632463B4610461946A6
:1032D000FDF720F906460F466410002CEAD1DDE91F
:1032E0000401DDE90023BAF1000F06DAFDF712F957
:1032F00042464B46FDF70EF905E0FDF77DF94246E3
:103300004B46FDF779F904460E460022284BFDF79F
:10331000FBF903D84FF0FF30014607E00022254BB0
:1033200020463146FDF74FF8FDF7D5F9102409E0A6
:10333000002C0ADB0A220023FCF7A8FF039B303293
:103340001A55641E50EA0102F2D1641C039AC4F1BA
:1033500011031444119A012A03D0012208430DD10C
:103360000AE0084304D000204FF0110B119072E7DF
:10337000A3EB0B056D1E0DE05B4504DD4FF0000275
:1033800005F1010504E003DA4FF00002A5F10105A3
:10339000002AECD002981199C0E90231C0E9004539
:1033A00079E70000000014400000F03F300000000A
:1033B0000000F0430000E03F2DE9FF4F95B09B4631
:1033C0008946064600250FE2252877D100242746A6
:1033D000F84A0121059400E0044316F8013F203B20
:1033E00001FA03F01042F7D130782A2811D06FF09B
:1033F0002F033078A0F13002092A16D8059A44F03C
:10340000020402EB820203EB42021044761C059098
:10341000EFE759F8042B0592002A03DA504244F4EE
:103420000054059044F00204761C30782E2816D102
:1034300016F8010F44F004042A280DD06FF02F0273
:103440003078A0F13003092B09D807EB870302EB92
:103450004303C718761CF3E759F8047B761C3078D1
:103460006C280FD006DC4C2817D068280DD06A28AD
:1034700014D104E0742810D07A280FD10DE044F460
:1034800000140AE044F4801401E044F4401472781B
:10349000824202D104F58014761C761C30786628AE
:1034A0000BD013DC582877D009DC002875D04528CC
:1034B000F6D04628F4D047281AD19DE118E06328B9
:1034C00035D0642879D0652812D195E1702873D061
:1034D00008DC6728F1D069286FD06E280DD06F28DE
:1034E00006D1B5E073282CD0752875D0782874D013
:1034F0005A46179990476D1C75E1C4F30250022893
:1035000009D003280DD0D9F8001004280DD00D6083
:1035100009F1040967E1D9F80010EA17C1E900527E
:10352000F6E7D9F800100D80F2E70D70F0E719F812
:10353000041B8DF8001000208DF80100EA460120E0
:1035400003E059F804AB4FF0FF3061074FF0000182
:1035500002D40DE008F101018846B9420FDA804536
:10356000F8DB1AF808100029F4D108E008F101018D
:1035700088468142FADB1AF808100029F6D105982E
:103580005B46A0EB080721463846179A00F094FAEC
:10359000284400EB080507E04DE029E10DE01AF8AA
:1035A000010B5A4617999047B8F10108F7D25B46CC
:1035B00021463846179A13E142E00A220092C4F3EA
:1035C00002524FF0000A022A08D059F804CB032A0D
:1035D0004FEAEC710AD00DE029E02AE009F1070179
:1035E00021F00702F2E802C1914609E00FFA8CFCD3
:1035F0004FEAEC71042A03D14FFA8CFC4FEAEC71CC
:10360000002907DA0A460021DCF1000C61EB020117
:103610002D2202E0220504D52B228DF80420012260
:1036200003E0E20701D02022F7E7904659E00A21A3
:1036300002E010220DE010214FF0000A00910BE093
:1036400010224FF0000A44F004040827009203E01F
:1036500008224FF0000A0092C4F30252022A05D059
:1036600059F804CB0021032A08D009E009F1070129
:1036700021F00702F2E802C1914605E01FFA8CFC36
:10368000042A01D10CF0FF0C4FF00008220728D5C6
:10369000702806D0009B83F0100353EA0A0305D07C
:1036A0000EE040228DF80420012208E05CEA0102CD
:1036B00006D030228DF804208DF8050002229046B5
:1036C000009B83F0080353EA0A030AD15CEA010273
:1036D00001D1620705D530228DF804204FF0010892
:1036E0007F1E582804D034A003900EA802900DE04D
:1036F00036A0F9E753466046009AFCF7C7FD8446BA
:103700000398825C0298401E029002705CEA0100FD
:10371000F0D1029806A9081A00F1200A600702D524
:1037200024F4803400E00127574502DDA7EB0A00AE
:1037300000E0002000EB0A01009005984144401A87
:103740000590E00306D45B462146179A059800F0E1
:10375000B3F90544002706E001A85A46C05D179951
:1037600090476D1C7F1C4745F6DBE0030CD55B469C
:103770002146179A059800F09FF9054404E030208F
:103780005A46179990476D1C0099481E00900029D1
:10379000F5DC08E0029802995A460078491C02912B
:1037A000179990476D1CBAF10001AAF1010AF1DCEA
:1037B00065E10000092801003031323334353637F5
:1037C000383961626364656600000000303132336D
:1037D000343536373839414243444546000000000D
:1037E00000F058F90544761C307800287FF4ECADE1
:1037F00019B02846BDE8F08F620700D4062709F10A
:10380000070222F0070CFCE80223E14603F000481F
:103810005FEA080C02D00FF2702C0DE05FEA045C46
:1038200002D50FF2682C07E05FEAC47C02D00FF2E9
:10383000602C01E0AFF2700C4FF0FF3823F0004332
:10384000CDF850C065280CD006DC452809D04628A4
:103850001DD047283DD13DE0662818D067287ED18D
:1038600038E00021112F01DB112000E0781CCDE9A8
:10387000000106A90EA8FFF7DDFCDDE90F010E9A95
:1038800003910021009207F1010A04914DE04FF0ED
:1038900000400097CDE9011006A90EA8FFF7CAFC69
:1038A000DDE90F0203920E9B11990022DDF80CA0B6
:1038B0000093049211B9791C00EB010AB7EB0A00DE
:1038C00004D4C0F1FF3007F1010A0490AAEB07000D
:1038D000019044E0012F00DA01270021112F01DDC2
:1038E000112000E03846CDE9000106A90EA8FFF737
:1038F000A1FCDDE90F010E9A0391002104910092D1
:10390000BA4621070CD40399514500DA8A46BAF128
:10391000010F05DD009AAAF10101515C302908D0A0
:10392000B84202DA10F1040F06DA0121CDE90110E4
:1039300015E0AAF10101E9E7002805DC049901443A
:103940000491AAEB000102E0411C514500DD8A46CA
:103950000499401A401C01904FF00040029020074B
:1039600004D40198504501DBCDF8048000208DF887
:103970004F0002980DF14F07B0F1004F25D02B20DA
:103980000E9002984FF0020800280CDA4042029094
:103990002D200E9007E00A210298FCF7DFFC303161
:1039A000029007F8011DB8F10001A8F10108F2DC4E
:1039B00002980028EFD1791E0E980870307800F038
:1039C000200040F0450007F8020D12A8C01B00F1CE
:1039D00007081498007800B1012000EB0A01019853
:1039E00001EBE07105984144401A401E0590E00348
:1039F00006D45B462146179A059800F05DF8054409
:103A00001498007818B15A46179990476D1CE00336
:103A100024D55B462146179A059800F04DF80544D9
:103A20001CE00498002807DBDDE90301884203DD80
:103A30000098405C179901E0179930205A4690474A
:103A4000049805F10105401C04900198401E019066
:103A500004D12E205A46179990476D1CBAF10001E7
:103A6000AAF1010ADDDC05E017F8010B5A461799A7
:103A700090476D1CB8F10001A8F10108F4DC5B4629
:103A80002146179A0598ABE62D0000002B00000098
:103A9000200000002DE9F041044600251E4617468F
:103AA000880404D405E039462020B0476D1C641E0C
:103AB000F9D52846BDE8F0812DE9F04104460025FE
:103AC0001E469046C80301D5302700E02027880411
:103AD00004D505E041463846B0476D1C641EF9D553
:103AE0002846BDE8F081000038B504468DF8000096
:103AF0006423012269460248FEF7BEFC204638BD19
:103B000068030020FDF71AFAFFF710F8FEF72AFD08
:103B1000FEF726FEFEF7C8FDFEF7A2FDFEF7E8FD64
:103B2000FEF702FEFEF778FDFFF7CAF800F0AEF8E8
:103B3000FEF7F4FC00F0BCF8FEE710B5EFF30581EA
:103B400011B16FF0050403E0002408B100F050FF4C
:103B5000204610BD70B50E46050002D0300E00287C
:103B600002D06FF0030412E0EFF30580002828462E
:103B70000AD001F01DF904463146284601F0ECF860
:103B800028B96FF0020402E001F0C6F804462046AE
:103B900070BD002807D0EFF3058109B101F008B925
:103BA000002101F0B9B8704710B54FF00001EFF3F4
:103BB00005826AB948B1D0E902202AB1202807D38A
:103BC000104601F0DFF802E010B901F0CDF801462F
:103BD000084610BD38B50C4610B1210E002902D0A0
:103BE0006FF0030038BDEFF30581B1B10021009102
:103BF0006A46214601F030F960B10099204600295B
:103C0000F0D0084A4FF080511160BFF34F8FBFF3DF
:103C10006F8F38BD6FF0020038BD214601F0D5F836
:103C200038BD000004ED00E0F8B51D4616460C4610
:103C300010B1210E002902D06FF00300F8BDEFF3A0
:103C4000058111B16FF00500F8BDF10701D0012326
:103C500000E00023B10701D5002200E00122214647
:103C6000009501F001F9F3076FF001016FF0020216
:103C700006D0844306D1F8BD0846F8BD1046F8BD0D
:103C80000442FCD1002DF9D0F6E70000EFF30580E7
:103C900010B16FF0050070470448016811B14FF092
:103CA000FF30704701210160002070477C00002038
:103CB00010B5EFF3058010B16FF0050010BD084896
:103CC0000168012902D04FF0FF3010BD054A0021E4
:103CD00082F8141D0221016000F052FF002010BD87
:103CE0007C0000200BE000E0F8B51D466FF00302F9
:103CF0006FF002064FF00004EFF30583A3B1F0B1BB
:103D0000E9B1E5B9002200926A4601F005FC0128FC
:103D100017D10098B0B10C494FF080500860BFF344
:103D20004F8FBFF36F8F0DE048B141B12A4601F0CC
:103D300057FB012806D025B16FF0010402E01446BC
:103D400000E034462046F8BD04ED00E0F8B5144626
:103D50004FF00005EFF3058212BB08B301B3A4B125
:103D6000D4E9023263B1502A1AD32269C2B1676919
:103D700000FB01F6B74213D3009501F0AAF907E062
:103D800072B9226962B9626952B9002201F080F900
:103D9000050005D00CB1216800E0002100F0F2FD23
:103DA0002846F8BDF8B51D466FF003026FF0020615
:103DB0004FF00004EFF30583ABB100B3F9B1F5B9EF
:103DC0000022134600926A4601F0AAFA012818D18F
:103DD0000098B8B10C494FF080500860BFF34F8F86
:103DE000BFF36F8F0EE050B149B100232A4601F0B6
:103DF000E7F9012806D025B16FF0010402E014466E
:103E000000E034462046F8BD04ED00E02DE9FF4116
:103E10004FEA01034FF00005EFF30581039549BB1D
:103E200040B38027182100244AB3166806B13446EF
:103E300096691EB13146761E382E02D21679F607E3
:103E400003D0002004B0BDE8F081566906B1B70880
:103E5000D2F808C0BCF1000F0DD0D5685C2D18D386
:103E600012693AB136B18DE806103A46214601F0A2
:103E700008FC03900DE0D6685EB912694AB903AA3E
:103E8000CDE90012BAB2214601F0CEFB012800D0E4
:103E900003950398D6E710B5EFF3058111B16FF0E4
:103EA000050403E020B1002400F0AEFE204610BD62
:103EB0006FF00304FAE700002DE9F041134C0F46C0
:103EC0000546E6682068001D00F04EFC681C07D11E
:103ED00037B12168BDE8F0410D48091D00F0A4BCD0
:103EE00020683544B5424560216805D2A06BBDE825
:103EF000F041091D00F080BC606B091D00F07CFCE6
:103F0000A06A854200D2A562BDE8F0812C000020A5
:103F1000E80800202DE9F041054600F091FC2D4C09
:103F2000A068401CA06020682B4F10B1606930B3BE
:103F30002BE02560A068012827D1002606EB86002B
:103F400007EB800000F04AFC761C382EF6D323489D
:103F500000F044FC2148143000F040FC1F48283099
:103F600000F03CFC1D483C3000F038FC1B48503051
:103F700000F034FC194860631430A06305E0206849
:103F8000E96AC06A884200D82560606A401C6062A5
:103F90006864E86A2169884200D9206100EB8000EA
:103FA00007EB8000291D00F03FFC00F069FC606910
:103FB00000280CD02068E96AC06A884207D2084904
:103FC0004FF080500860BFF34F8FBFF36F8FBDE895
:103FD000F08100002C000020380400209808002008
:103FE00004ED00E038B500F02BFC104C2068C8B997
:103FF0000F4800F0F3FB0E48143000F0EFFB0C48C4
:10400000E060143020610A4B0020F03B009003F187
:10401000500210210A2001F05CF8206010B105A1C7
:1040200000F0B0FCBDE8384000F02ABC6800002079
:10403000EC090020546D72510000000030B4026C95
:104040000B46002A0BD0C1681144C1608468A142AC
:1040500001D30168C16030BC1846FCF748B930BCD8
:1040600070472DE9F041856B174604460026026C27
:1040700082B1C7B1E068FCF73AF9E168206C091A2F
:10408000E1602268914202D2A168081AE060022F22
:1040900016D017E02068A8B9A06801F095FB064685
:1040A0000020A0600EE06068FCF721F9216C6068D8
:1040B00008446060A168884204D32068606001E021
:1040C00005B16D1E6D1CA5633046BDE8F08110B5CD
:1040D000044690F8590058B101280CD002280FD09E
:1040E000502080F31188BFF34F8FBFF36F8FFEE72F
:1040F000206B00F0D9FB2046BDE8104000F0D4BB97
:1041000010BD000010484FF47051420706D0C01D8A
:104110000D4920F00700411AC1F570510B4A0023E8
:104120000144C2E900030839183A21F0070111607F
:104130004B600B600B1AC0E9001393604FF0004016
:104140005360506170470000CC10002098000020A0
:10415000144E154CA6F29C474FF08058DFF84C9057
:1041600012E000BF00F06CFBF068C568281D00F08D
:10417000FBFAA068401EA0606068401E606000F00E
:104180007FFB2846FFF7A3FF60680028EAD1386864
:104190000128F9D9C9F80080BFF34F8FBFF36F8FA3
:1041A000F2E70000D40800202C00002004ED00E01D
:1041B00070B51D46049C51B1C4F80020C4E90F013C
:1041C0000121204600F0B8FF84F84C5070BD2460F7
:1041D000F4E700002DE9F05F8846DDE90B94154611
:1041E000834691009A460A9EA522206BFCF791F81F
:1041F0006FF00301206B01EB8501084420F00707F5
:10420000780707D0502080F31188BFF34F8FBFF39A
:104210006F8FFEE70025B8F1000F0FD05FF00000B0
:10422000221818F8001082F8341018F8001011B194
:10423000401C1028F4D384F8435001E084F8345033
:10424000382E00D33726E662C4E91365201D00F03E
:10425000D0FA04F1180000F0CCFA2461C6F138005D
:104260006462A061656584F85850524659463846E4
:1042700000F064FA2060B9F1000F01D0C9F80040E5
:10428000BDE8F09F30B5114900E011460A6882424E
:10429000FBD34B685C18844203D1406818444860E3
:1042A000084643681C18944209D1084C183C2468FD
:1042B000A24209D052681A4442600A681268026039
:1042C000814200D0086030BD0460F9E7980000200A
:1042D00070B5002441600B4D0061914206D8D11A9F
:1042E0008269914206D2011D286907E09A4203D2F1
:1042F000994201D3012403E0011DE86800F07CFA33
:10430000204670BD6800002010B5044600F098FA01
:10431000A06B28B15FF0000400F0B2FA204610BD97
:104320000124F9E730B589B03C4D6EE004980028CF
:1043300006DADDE90601059A90470498002864DB57
:10434000069C606910B1201D00F00EFA03A800F071
:10435000D7F8024604980A2857D2DFE800F005058E
:10436000052D334A05052D3394F8280040F001004F
:1043700084F828000599A069059B01442046FFF7B1
:10438000A7FF68B3216A2046884794F828004007B1
:104390003BD5002000900598A169002342181946DA
:1043A000204601F01BFBD8B9502080F31188BFF3E1
:1043B0004F8FBFF36F8FFEE714F8280F20F0010036
:1043C000207022E094F8280040F0010084F82800D2
:1043D0000598A06128B1811813462046FFF778FFA1
:1043E00013E0502080F31188BFF34F8FBFF36F8F1E
:1043F000FEE794F82800810703D4204600F054FA21
:1044000003E020F0010084F82800002204A92868B5
:1044100000F0E6FF002889D109B030BD6800002017
:104420002DE9FC410F46054600F03CFC01A800F0D8
:1044300067F80446019818B101F03EFABDE8FC8126
:10444000254EAFB130690068D0B30027291B3A462A
:10445000306800F0ABFA01F02FFA0028EED11F49C6
:104460004FF080500860BFF34F8FBFF36F8FE5E7C9
:10447000A542EBD801F020FAF0682746C068C4686E
:10448000201D00F071F994F82800410719D5A069A2
:104490002B4641193A462046FFF71AFFA8B10020E3
:1044A0000346014600902A46204601F097FA60B97B
:1044B000502080F31188BFF34F8FBFF36F8FFEE75B
:1044C00007E020F0010084F82800216A2046884790
:1044D000B4E70127BAE700006800002004ED00E01F
:1044E0000648416B096829B1416BC968C9684968C8
:1044F000816270474FF0FF31FAE700002C00002086
:1045000070B5054601F0F6F8064E0446B0688442E0
:1045100003D200F009F8012000E0002028602046C6
:10452000B46070BD68000020F8B5194D20E0C06887
:10453000C4680668201D00F017F9216A20468847E4
:1045400094F82800400713D5A0693044B04206D93A
:1045500024616060211DE86800F04EF908E0002049
:104560000346014600903246204601F037FA38B142
:10457000E86801680029DAD12969C5E90310F8BDA6
:10458000502080F31188BFF34F8FBFF36F8FFEE78A
:104590006800002008484068401C4FF0500080F33D
:1045A000118804D0BFF34F8FBFF36F8FFEE7BFF3C7
:1045B0004F8FBFF36F8FFEE7A0000020034600205F
:1045C00012B1994302D070470B42FCD001207047D2
:1045D000074CE068016841B1C0680021D0F80000D4
:1045E000FFF71EFFFFF79EFEF3E701210020F7E72C
:1045F000680000202DE9F041044600F021F994F90B
:10460000455004F1240609E0606A48B1304601F0E3
:104610001BF908B100F01AFA6D1E6DB2002DF3DC23
:104620004FF0FF3684F8456000F02AF900F008F9F1
:1046300094F9445004F1100709E0206948B1384664
:1046400001F002F908B100F001FA6D1E6DB2002D03
:10465000F3DC84F84460BDE8F04100F011B90000DB
:104660002DE9F0410546002700F01CFB324E306872
:1046700008B9FFF747FD706905424ED1C5B308354B
:1046800068070ED005F00700C0F108000544680770
:1046900007D0502080F31188BFF34F8FBFF36F8F87
:1046A000FEE72DB37068854237D82348183001469D
:1046B0000C6801E020460C466168A94202D22168DC
:1046C0000029F7D131688C4227D007682168016042
:1046D00060680837411B10290FD96019420708D0BC
:1046E000502080F31188BFF34F8FBFF36F8FFEE729
:1046F00013E041606560FFF7C5FD61687068401AAE
:104700007060B268904200D2B060706901430020CE
:10471000C4E90001F068401CF06001F0CDF87807B2
:1047200007D0502080F31188BFF34F8FBFF36F8FF6
:10473000FEE73846BDE8F0818000002010B5031F79
:104740004FF080741C601B1F21F001011960191FBC
:10475000044B0B6014390A60091F6FF002024438E1
:104760000A6010BD95450008D0E9013201699A60E0
:10477000D0E901235A604A68824201D182684A60C6
:10478000002202610868401E086008687047000047
:10479000044908680A688069D26A0968C2F1380267
:1047A0008A6170472C000020034B036003F15C001A
:1047B0000860802010607047140A0020044B0360DA
:1047C00003F15C0008604FF48070106070470000D7
:1047D000700C002000F0A0BA00F0F7BA00F1080158
:1047E0004FF0FF32C0E90112C16001610021016098
:1047F000704700210161704730B50B685A1C02D028
:1048000000F1080202E0026904E0224654682568CB
:104810009D42FAD953684B6099608A605160086183
:104820000168491C016030BD42684A6093688B6032
:1048300093685960916008610168491C0160704784
:10484000502080F31188BFF34F8FBFF36F8F0A4959
:104850004868401C486001280CD10848006810F0E6
:10486000FF0F07D0502080F31188BFF34F8FBFF3A5
:104870006F8FFEE770470000A000002004ED00E00D
:104880000849486828B1401E486001D180F311886A
:104890007047502080F31188BFF34F8FBFF36F8FA5
:1048A000FEE70000A000002070B500282AD0164DB9
:1048B000A0F1080460686969084207D1502080F3BC
:1048C0001188BFF34F8FBFF36F8FFEE722683AB1B5
:1048D000502080F31188BFF34F8FBFF36F8FFEE737
:1048E0008843606000F0DEF96068696808446860C9
:1048F0002046FFF7C7FC2869401C2861BDE87040CE
:1049000000F0DABF70BD0000800000204FF0E02012
:1049100000210161816105494FF47A720968B1FB98
:10492000F2F1491E41610721016170472800002012
:1049300010B5FBF795FC114910280ED300F1E020CB
:1049400090F8F0030A78904207D2502080F3118843
:10495000BFF34F8FBFF36F8FFEE709480068896888
:1049600000F4E060884207D9502080F31188BFF33B
:104970004F8FBFF36F8FFEE710BD0000A000002037
:104980000CED00E010B5084B002200BF53F8324098
:104990001CB1521C082AF9D310BD43F8321003EBA6
:1049A000C201486010BD0000F803002070B5154634
:1049B0000E460446FFF744FF94F944100020491CBA
:1049C00001D184F8440094F94510491C01D184F8C0
:1049D0004500FFF755FFA06B28B92A46314604F180
:1049E000240000F051F82046BDE87040FFF702BEF9
:1049F00010B5020014D00F48006B38B1502080F37E
:104A00001188BFF34F8FBFF36F8FFEE700F04AF9B5
:104A100000211046FFF750FA00F04EFF002807D1A2
:104A200005494FF080500860BFF34F8FBFF36F8F81
:104A300010BD00002C00002004ED00E002490A6ACD
:104A40000260C968416070472C00002001490120C4
:104A5000C86170472C00002010B50C4650B10949C0
:104A600009681831FFF7C8FE2046BDE81040012153
:104A7000FFF722BA502080F31188BFF34F8FBFF3A6
:104A80006F8FFEE72C00002070B514460D4668B10C
:104A90000A4909681831FFF7C7FE0CB14FF0FF351E
:104AA00021462846BDE87040FFF706BA502080F343
:104AB0001188BFF34F8FBFF36F8FFEE72C000020EC
:104AC00010B51446030011D01048026BB2B1026851
:104AD00041F000419161016818461831FFF7A4FECA
:104AE0002046BDE810400121FFF7E6B9502080F3D1
:104AF0001188BFF34F8FBFF36F8FFEE7502080F315
:104B00001188BFF34F8FBFF36F8FFEE72C0000209B
:104B100070B5194D2A6BF2B141F000410160C468D3
:104B20000CB3FFF721FE201DFFF71EFEE06A296986
:104B3000884200D92861114900EB800001EB800018
:104B4000211DFFF771FEE06A2968C96A884201D910
:104B50000120E86170BD502080F31188BFF34F8FB2
:104B6000BFF36F8FFEE7502080F31188BFF34F8FA4
:104B7000BFF36F8FFEE700002C00002038040020F8
:104B800030B587B00024039405AA04A903A80494AF
:104B9000FFF70AFEDDE903010094CDE901100023CF
:104BA00015A11748059A00F06CFD164D0028E86223
:104BB0001FD000F0E3FE012809D0401C19D150207D
:104BC00080F31188BFF34F8FBFF36F8FFEE7502044
:104BD00080F31188BFF34F8FBFF36F8F4FF0FF301B
:104BE000A86201206861EC6007B0BDE8304000F0C9
:104BF000BFB907B030BD000049444C45000000007B
:104C0000514100082C00002070B50446FFF718FE43
:104C1000214D04B92C68201DFFF7A6FDA06A18B12C
:104C200004F11800FFF7A0FD211D1C48FFF7FCFD53
:104C300094F858000026012801D184F85860FFF745
:104C40001FFE686928B1FFF7FBFDFFF749FCFFF77E
:104C500017FE2868844213D1686990B1286B38B177
:104C6000502080F31188BFF34F8FBFF36F8FFEE7A3
:104C70000B494FF080500860BFF34F8FBFF36F8F29
:104C800070BD06480068A968884201D12E6070BDD9
:104C9000BDE8704000F00EB82C000020E8080020AD
:104CA00004ED00E00248016B491C016370470000FD
:104CB0002C000020164810B5016B11B10121C16113
:104CC00010BD0021C1610169124A01E0B9B1491E5C
:104CD00001EB810352F82330002BF7D001EB810365
:104CE00002EB830202F1080453685B685360A3423D
:104CF00001D15B685360DA680260016110BD502029
:104D000080F31188BFF34F8FBFF36F8FFEE7000072
:104D10002C0000203804002070B50E46040009D095
:104D2000300E0FD0502080F31188BFF34F8FBFF3A8
:104D30006F8FFEE7502080F31188BFF34F8FBFF3D2
:104D40006F8FFEE7FFF77CFD256825EA06002060EF
:104D5000FFF796FD284670BD0A460146002301482C
:104D600000F070BED547000870B52020FFF778FC32
:104D7000040005D00025201D2560FFF72FFD2577B5
:104D8000204670BD38B558B120210446002000915E
:104D90002060201DFFF722FD01202077204638BD2E
:104DA000502080F31188BFF34F8FBFF36F8FFEE762
:104DB0005022EFF3118182F31188BFF34F8FBFF3BD
:104DC0006F8F006881F3118870472DE9F04100274B
:104DD000884604000AD05FEA18600FD0502080F3A4
:104DE0001188BFF34F8FBFF36F8FFEE7502080F322
:104DF0001188BFF34F8FBFF36F8FFEE7261D04F1BD
:104E00000C05FFF74FFF2168F06841EA08012160B7
:104E100017E0D0E9001601F07F425301236821F02A
:104E20007F4102D40B4203D10AE031EA030307D1E8
:104E3000D20100D50F43216841F00071FFF768FEF1
:104E40003046A842E5D12068B843206000F034FD28
:104E50002068BDE8F081000013460A46014601487B
:104E600000F0F0BDD94700082DE9F0479A46DDF87B
:104E7000209090460D4604004FF0000709D0280E00
:104E80000FD0502080F31188BFF34F8FBFF36F8F87
:104E9000FEE7502080F31188BFF34F8FBFF36F8F71
:104EA000FEE71DB100F018FC40B112E0502080F385
:104EB0001188BFF34F8FBFF36F8FFEE7B9F1000F7B
:104EC00007D0502080F31188BFF34F8FBFF36F8F4F
:104ED000FEE7FFF7E7FE2668524629463046FFF711
:104EE0006DFB30B1B8F1000F1AD02068A8432060E4
:104EF00016E0B9F1000F13D0B8F1000F01D04FF058
:104F00008077BAF1000F01D047F0806745EA0701CA
:104F10004A46201DFFF7D4FD00F0CEFC18B10AE090
:104F200000F0CAFC1FE011494FF080500860BFF349
:104F30004F8FBFF36F8FFFF72BFC0646800110D415
:104F4000FFF77EFC2668524629463046FFF736FBBF
:104F500028B1B8F1000F02D02068A8432060FFF705
:104F60008FFC26F07F463046BDE8F08704ED00E078
:104F70001CB537480168374A914207D1502080F369
:104F80001188BFF34F8FBFF36F8FFEE70068314981
:104F9000491E884207D1502080F31188BFF34F8FFC
:104FA000BFF36F8FFEE72C4908780190FF2008704F
:104FB00008788DF800009DF800009DF8002000F0B2
:104FC000F000904207D0502080F31188BFF34F8F3C
:104FD000BFF36F8FFEE79DF80000204C00F05000FB
:104FE00020700720A06005E09DF8002052008DF899
:104FF0000020401E9DF800201206F5D4A060032872
:1050000007D0502080F31188BFF34F8FBFF36F8F0D
:10501000FEE74FF44070A060019808700C48203003
:10502000016841F470010160016841F07041016064
:10503000FFF76CFC00206060FBF7DAF808480168B5
:1050400041F040410160FBF7BFF800201CBD0000AB
:1050500000ED00E071C20F4100E400E0A00000207C
:1050600034EF00E010B5502080F31188BFF34F8F6C
:10507000BFF36F8F00F044FB18B104494FF080502C
:105080000860002080F3118810BD000004ED00E0EE
:10509000F8B517460E46050013D005FB06F0503054
:1050A000FFF7DEFA04000AD0002084F8460004F17D
:1050B00050023B46314628460094FFF779F82046D7
:1050C000F8BD502080F31188BFF34F8FBFF36F8F6F
:1050D000FEE738B5049D18B153B1CAB181B120E0E3
:1050E000502080F31188BFF34F8FBFF36F8FFEE71F
:1050F000502080F31188BFF34F8FBFF36F8FFEE70F
:10510000502080F31188BFF34F8FBFF36F8FFEE7FE
:1051100039B1502080F31188BFF34F8FBFF36F8FE9
:10512000FEE750241C46012384F846302B460094A9
:10513000FFF73EF8204638BD70B50D46040025D077
:10514000FFF77EFBD4E90F20216802FB0011A1606C
:105150000021A163216861600A46D4E90F01401E65
:1051600000FB0121E16021464FF0FF3001F8440FC0
:10517000487004F110008DB1FFF730FB04F12400FA
:10518000FFF72CFBFFF77CFB012070BD502080F364
:105190001188BFF34F8FBFF36F8FFEE7216900299E
:1051A000F0D000F051FB0028ECD004494FF08050C3
:1051B0000860BFF34F8FBFF36F8FE3E704ED00E0AC
:1051C0002DE9FF4782B01D468A464FF000080400D3
:1051D00003D0BAF1000F08D011E0502080F31188FD
:1051E000BFF34F8FBFF36F8FFEE7206C38B15020B5
:1051F00080F31188BFF34F8FBFF36F8FFEE7022D4F
:105200000AD1E06B012807D0502080F31188BFF34A
:105210004F8FBFF36F8FFEE700F05EFA3F4F4FF006
:1052200000094FF0805648B9049838B1502080F3F7
:105230001188BFF34F8FBFF36F8FFEE7FFF700FBBF
:10524000A06BE16B884207D3022D05D00498D0B142
:10525000B8F1000F1AD01EE02A4651462046FEF74C
:1052600000FF616A19B104F1240000F0EDFA20B1E9
:105270003E60BFF34F8FBFF36F8FFFF701FB01203D
:1052800006B0BDE8F087FFF7FBFA22E06846FFF7BB
:10529000D5FB4FF00108FFF7F3FAFFF703FDFFF727
:1052A000CFFA94F94400401C01D184F8449094F959
:1052B0004500401C01D184F84590FFF7E1FA04A9AC
:1052C000684600F077F930B12046FFF793F900F017
:1052D000F3FA0020D4E7FFF7B3FAA06BE16B884242
:1052E00013D1FFF7CDFA04F110000499FFF7B4FBD6
:1052F0002046FFF77FF900F0DFFA00289ED13E60DC
:10530000BFF34F8FBFF36F8F98E7FFF7B9FA2046CF
:10531000FFF770F900F0D0FA90E7000004ED00E02C
:105320002DE9F0471F4690468946040003D0B9F1A5
:10533000000F08D011E0502080F31188BFF34F8F89
:10534000BFF36F8FFEE7206C38B1502080F31188D7
:10535000BFF34F8FBFF36F8FFEE7022F0AD1E06BD1
:10536000012807D0502080F31188BFF34F8FBFF37F
:105370006F8FFEE7FFF7DCFA5020EFF3118680F322
:105380001188BFF34F8FBFF36F8FA06BE16B884223
:1053900006D3022F04D0002086F31188BDE8F087E1
:1053A00094F94550A06B3A4649462046FEF759FE0F
:1053B000681C04D06D1C84F845500120ECE7606A3D
:1053C0000028FAD004F1240000F03EFA0028F4D0BE
:1053D000B8F1000FF1D00121C8F80010EDE700008E
:1053E0002DE9F747002683B08A46040003D0BAF1BE
:1053F000000F08D011E0502080F31188BFF34F8FC9
:10540000BFF36F8FFEE7206C38B1502080F3118816
:10541000BFF34F8FBFF36F8FFEE700F05DF9DFF84A
:10542000F4804FF000094FF0805748B9059838B123
:10543000502080F31188BFF34F8FBFF36F8FFEE7CB
:10544000FFF7FEF9A56BC5B151462046FEF7F6FD04
:105450006D1EA563206950B104F1100000F0F4F94D
:1054600028B1C8F80070BFF34F8FBFF36F8FFFF7FD
:1054700007FA012006B0BDE8F087059808B11EB113
:1054800006E0FFF7FDF927E06846FFF7D7FA0126A7
:10549000FFF7F6F9FFF706FCFFF7D2F994F944009D
:1054A000401C01D184F8449094F94500401C01D17E
:1054B00084F84590FFF7E4F905A9684600F07AF80A
:1054C000002820460AD0FFF795F800F0F5F92046AD
:1054D000FEF71AFF0028B3D00020CBE7FEF714FF39
:1054E00090B104F124000599FFF7B6FA2046FFF7C2
:1054F00081F800F0E1F90028A2D1C8F80070BFF3EC
:105500004F8FBFF36F8F9BE72046FFF773F800F0D4
:10551000D3F995E704ED00E02DE9F0479046894680
:10552000040003D0B9F1000F08D011E0502080F33F
:105530001188BFF34F8FBFF36F8FFEE7206C38B138
:10554000502080F31188BFF34F8FBFF36F8FFEE7BA
:10555000FFF7EEF95020EFF3118680F31188BFF3C7
:105560004F8FBFF36F8FA76BF7B194F94450494643
:105570002046FEF763FD7F1EA763681C04D06D1CE8
:1055800084F84450012010E020690028FAD004F18A
:10559000100000F059F90028F4D0B8F1000FF1D054
:1055A0000121C8F80010EDE7002086F31188BDE85E
:1055B000F08700002DE9F0410C46050011D0C4B180
:1055C000FFF73EF9174BDA686E682068911B471C9D
:1055D00017D02F681B6A9F4219D0964217D8012412
:1055E00010E0502080F31188BFF34F8FBFF36F8F0F
:1055F000FEE7502080F31188BFF34F8FBFF36F8F0A
:10560000FEE70024FFF73CF92046BDE8F081884220
:1056100005D9401A20602846FFF710FAF1E700206C
:105620002060DCE72C0000202DE9FF5F8346DDE9E8
:105630000E87994616468A469000FFF711F8050036
:105640001CD05C20FFF70CF8040014D00020256368
:1056500084F85900CDE90240CDE900874B46324637
:1056600051465846FEF7B6FD2046FEF753FC012092
:1056700004B0BDE8F09F2846FFF716F94FF0FF3061
:10568000F6E7F0B585B0DDE90B640A9DA6B1DCB1A3
:105690005C2700972663022684F85960002604AF31
:1056A000CDE90246CDE90057FEF794FD2046FEF70E
:1056B00031FC049805B0F0BD502080F31188BFF391
:1056C0004F8FBFF36F8FFEE7502080F31188BFF339
:1056D0004F8FBFF36F8FFEE70548416919B1006B2B
:1056E00018B1002070470120704702207047000069
:1056F0002C0000200148C068704700002C000020EA
:105700002DE9F0412E4C0027206B28B1A069401CE8
:10571000A0613846BDE8F081E668761CE66013D1EA
:10572000606B006838B1502080F31188BFF34F8F51
:10573000BFF36F8FFEE7606BA16B6163A063206AAC
:10574000401C2062FEF7CCFEA06ADFF8788086421B
:1057500009D3606B0068A0B1606BC068C5686868F9
:10576000864211D2A0622068C06A00EB800158F81E
:105770002100012800D90127E0690028C9D00127AC
:10578000C7E74FF0FF30EDE7281DFEF7EDFFA86AF1
:1057900018B105F11800FEF7E7FFE86A21698842B1
:1057A00000D9206100EB800108EB8100291DFFF783
:1057B0003BF8E86A2168C96A8842CAD30127C8E76A
:1057C0002C0000203804002070B504004FF00001C8
:1057D00033D01B4D2868844207D0502080F31188B5
:1057E000BFF34F8FBFF36F8FFEE7206D38B1401EC0
:1057F0002065E36CE26A9A421FD040B11DE0502060
:1058000080F31188BFF34F8FBFF36F8FFEE7201D2A
:10581000FEF7AAFFE06CE062C0F13800A061E06A28
:105820002969884200D92861064900EB800001EB14
:105830008000211DFEF7F8FF0121084670BD000021
:105840002C0000203804002070B5C068C46854B132
:1058500004F118000646FEF787FF144D286B50B17F
:105860003146134815E0502080F31188BFF34F8F65
:10587000BFF36F8FFEE7201DFEF776FFE06A296910
:10588000884200D928610B4900EB800001EB8000C1
:10589000211DFEF7C9FFE06A2968C96A884202D95A
:1058A0000120E86170BD002070BD00002C000020C8
:1058B000C0080020380400202DE9F0472C4D0024BA
:1058C0002746286B38B1FEF7BBFF286B401E2863C4
:1058D000286B40B146E0502080F31188BFF34F8F12
:1058E000BFF36F8FFEE7A968224E0120D1B3A6F562
:1058F000916980463068E0B1F068C46804F118002E
:10590000FEF732FF201DFEF72FFFE06A296988426B
:1059100000D9286100EB800109EB8100211DFEF711
:1059200083FFE06A2968C96A8842E3D3C5F81C800E
:10593000E0E70CB1FEF7D4FDAC694CB14FEA0806C4
:10594000FFF7DEFE00B1EE61641EF9D10020A86110
:10595000E86938B10849012738070860BFF34F8F5D
:10596000BFF36F8FFEF78CFF3846BDE8F08700006D
:105970002C000020C008002004ED00E010B586B027
:10598000FEF730FB114C2068B8B100200390049062
:1059900005AA04A903A8FEF711FFDDE903210220EF
:1059A0008DE8070000230AA10B48059AFFF769FE5E
:1059B000606010B106B0012010BD502080F3118846
:1059C000BFF34F8FBFF36F8FFEE70000680000202A
:1059D000546D722053766300D14500082DE9FF41D4
:1059E0001E46134602000A9D4FF0000016D0144CCC
:1059F0002768002F0FD0CDE900130292062917DA8D
:105A0000FFF76AFE02284FF000030FD0002269461C
:105A10002068FFF7D5FB04B0BDE8F081502080F38B
:105A20001188BFF34F8FBFF36F8FFEE72A46EEE773
:105A30000023324669463846FFF772FCEBE7000068
:105A4000680000201FB51C466FF00103CDE900304F
:105A5000CDE9021204480023224669460068FFF798
:105A60005FFC04B010BD000068000020200C10781E
:105A7000145B0008000000000000000000000000AF
:105A800000000000001000001800000000000000EE
:105A900000000000085B000800000000000000009B
:105AA00000000000000000000004000020000000D2
:105AB0000000000000000000F85A0008000000008C
:105AC00000000000000000000000000000000000D6
:105AD000205B000800000000000000000000000043
