:020000040800F2
:10000000F8060020A9010008A722000853200008D4
:10001000A5220008090A0008352900080000000090
:100020000000000000000000000000004D24000857
:100030000B0A000800000000A92200084F24000855
:10004000C3010008C3010008C3010008C301000880
:10005000C3010008C3010008C3010008C301000870
:10006000C3010008C3010008C3010008C301000860
:10007000C3010008C3010008C3010008C301000850
:10008000C3010008C3010008C3010008000000000C
:10009000000000000000000000000000C301000894
:1000A000C3010008C3010008C3010008C301000820
:1000B000C3010008C3010008C3010008C301000810
:1000C000C3010008C3010008C3010008C301000800
:1000D000AD22000829290008C30100080000000023
:1000E000C3010008C3010008C301000800000000AC
:1000F000000000000000000000000000C301000834
:1001000000000000C3010008C3010008C30100088B
:1001100000000000000000000000000000000000DF
:10012000C3010008C3010008C3010008C30100089F
:10013000C3010008000000000000000000000000F3
:10014000000000000000000000000000C3010008E3
:10015000C3010008C3010008C3010008C30100086F
:10016000C3010008C30100080000000000000000F7
:10017000000000000000000000000000000000007F
:1001800000000000C30100080000000000000000A3
:10019000C3010008DFF80CD000F05CFA004800470B
:1001A00069320008F80600200648804706480047E4
:1001B000FEE7FEE7FEE7FEE7FEE7FEE7FEE7FEE717
:1001C000FEE7FEE7ED240008950100082DE9F05F49
:1001D0000546002092469B468846064681464024B6
:1001E0001BE0284641464746224600F06AF853463F
:1001F0005A46C01A914110D311461846224600F0C3
:1002000051F82D1A67EB01084F46224601200021C4
:1002100000F048F817EB00094E41201EA4F101043C
:10022000DFDC484631462A464346BDE8F09FD2B25D
:1002300001E000F8012B491EFBD270470022F6E7CF
:1002400010B513460A4604461946FFF7F0FF20464C
:1002500010BD00F0004230F000400AD0C10D01F5A1
:100260006071C0F3160042EA0151C2084007114311
:10027000704700200146704730B50B46014600200C
:100280002022012409E021FA02F59D4205D303FA58
:1002900002F5491B04FA02F52844151EA2F10102D9
:1002A000F1DC30BD202A04DB203A00FA02F1002004
:1002B00070479140C2F1200320FA03F319439040A4
:1002C0007047202A04DB203A21FA02F0002170470F
:1002D00021FA02F3D040C2F12002914008431946AE
:1002E00070472DE9FE4F804681EA0300C00F0C469F
:1002F000009021F0004123F00045B8EB0200A94135
:1003000005D24046214690461C460B46024623F045
:100310000040104347D0270DC7F30A00C3F30A512A
:100320000290401A019040286BDAC3F3130040F4A6
:10033000801B0098924620B10023D2EB030A63EBA6
:100340000B0B01985946C0F140025046FFF7AAFF37
:1003500006460D4650465946019A00F08DF910EBBD
:1003600008006141002487EA115284EAE7731A43C6
:1003700040D0009A62B3019A012A4FEA075215DC75
:10038000001B61EB02014FF0004202EA0752CDE987
:100390000042001C41F5801132462B4600F08DF9D9
:1003A00003B0BDE8F08F40462146F9E7001B61EB42
:1003B0000201001C41F5801300185B412018A2F5D2
:1003C000001747EB030140EAD570B6196D4111E003
:1003D0006D084FEA360645EAC0754FEA0752001B22
:1003E00061EB0201001C41F5801149084FEA300021
:1003F0000019514132462B4603B0BDE8F04F00F0E2
:100400004DB90098012240000023D0EB020263EBBB
:10041000E073009821464FEAE074B8EB000061EB0E
:100420000401E9E783F000435BE781F0004158E70E
:100430002DE9FE4F81EA030404F0004421F000415D
:1004400000944FF0000B23F0004350EA01045ED00B
:1004500052EA03045BD0C3F30A54C1F30A552C4497
:10046000A4F2F3340194A0FB0254C1F3130141F44C
:100470008011C3F3130343F4801301FB024400FB18
:10048000034E840A970A44EA815447EA8357A4FB3F
:10049000076802958D0A05FB07854FEA932C04FB3C
:1004A0000C542705029D4FEA065847EA1637B5EB6C
:1004B00008056EEB070C870E920E47EA811742EA99
:1004C0008312A7FB0201B6EB0B0164EB00042B0DBA
:1004D00043EA0C335E1844EB1C50DA465146E7FB06
:1004E0000201C5F313044FEA0B3343EA14534FEAF6
:1004F0000432019C43EA0603A4F10C040294009C1C
:10050000CDE900B400F0D9F803B0BDE8F08F0020C9
:100510000146F9E72DE9F04D81EA030404F0004BB0
:1005200021F0004514464FF0000A23F0004150EA44
:10053000050220D054EA01021DD0C5F30A57024635
:10054000C5F31303C1F31300C1F30A5640F4801539
:1005500043F48013A7EB0608101BD64608F2FD38BB
:1005600073EB050002D308F1010801E092185B412A
:10057000B8F1000F03DA00200146BDE8F08D00203D
:100580004FF48011064684460EE0171B73EB0507F7
:1005900005D3121B63EB050306434CEA010C490823
:1005A0004FEA300092185B4150EA0107EDD152EA60
:1005B000030012D082EA040083EA0501084305D053
:1005C000101BAB4106D20122002306E000224FF0AF
:1005D000004302E06FF0010253101AEB06004CEBEF
:1005E000085110EB0A0041EB0B01BDE8F04D00F0A3
:1005F00055B8C1F30A52C1F3130140F2FF3341F47D
:1006000080119A4202DA00200146704740F23343DB
:100610009A42A2F2334202DC5242FFF752BEFFF787
:1006200041BE000030B5041E71F1000404DB4FF040
:100630000044404264EB0101141E73F1000405DB29
:100640001C464FF00043524263EB0403994208BF3B
:10065000904230BD064C074D06E0E06840F00103D3
:1006600094E8070098471034AC42F6D3FFF796FDA4
:10067000B0320008D0320008202A06DBCB17203A1F
:1006800041FA02F043EAE07306E041FA02F3D04097
:10069000C2F12002914008431946704710B5141E5C
:1006A00073F1000408DA401C41F1000192185B412B
:1006B0001A4301D120F0010010BD2DE9F04D924602
:1006C0009B4611B1B1FA81F202E0B0FA80F2203219
:1006D0009046FFF7E7FD04460F4640EA0A0041EA6C
:1006E0000B0153465A46084313D0114653EA010002
:1006F00019D0C8F140025046FFF7E3FD05460E460B
:10070000504659464246FFF7CDFD084305D001202B
:1007100004E020463946BDE8F08D0020054346EA56
:10072000E0762C4337430A986305E40AA0EB0800FF
:100730000022FD0A44EA47540A3002D5002001464F
:10074000E9E7010510196941DDE90845001969412A
:10075000BDE8F04DA2E7000011B581B000200E4CBD
:100760008DF8000002461021204600F0B4FA642300
:10077000012201A9094801F011F864230122694608
:10078000064800F061FF01221021204600F0A3FA84
:100790009DF800001CBD0000000002401800002071
:1007A000F0B589B060A002F0C7F8FF20654F8DF862
:1007B000100000221021384600F08DFA0024642336
:1007C000012204A9604800F0E9FF641C042CF6DB58
:1007D00001221021384600F07EFA0A2000F074F958
:1007E0005AA00022006805901021384600F073FAE4
:1007F0006423022205A9544800F0D0FF01221021F1
:10080000384600F068FA322000F05EF92820FFF741
:10081000A3FF01464EA002F08FF856A00022006808
:1008200006901021384600F056FA6423022206A9E9
:10083000454800F0B3FF01221021384600F04BFA82
:100840004DA002F079F800F04BFA044641F28835E9
:1008500007E000BF00F044FA001BA84201D94CA0F9
:1008600018E00221384600F031FA0128F2D000F0F9
:1008700037FA011B4BA002F05FF8002600F030FAB7
:1008800004464FF47A7509E000F02AFA001BA842EA
:1008900004D94AA002F050F809B0F0BD0221384650
:1008A00000F014FA0128EFD038208DF81C00002049
:1008B000024601901021384600F00DFA642301220F
:1008C00007A9214800F06AFF6423022201A91E48FB
:1008D00000F0BAFE01221021384600F0FCF9BDF804
:1008E0000400DFED3A0A44BAA4F5004005B200EE78
:1008F000105AB8EEC00A20EE200ADFED350A20EECD
:10090000200A10EE100AFFF7A4FCCDE902012346ED
:100910001A46009531462FA002F00EF8C820761C2A
:1009200000F0D2F8AAE700003D3D3D3D3D3D20529C
:100930004157204445425547203D3D3D3D3D3D0DFD
:100940000A0000000000024018000020200C0000F7
:10095000436C6F636B20726567203D2030782530D3
:1009600032582028657870656374203078304329C8
:100970000D0A00001040000057616974696E67201D
:1009800073656C662D63616C2E2E2E0D0A000000BF
:1009900053656C662D63616C2054494D454F555429
:1009A0000D0A000053656C662D63616C204F4B206F
:1009B000256C75206D730D0A0000000044524459E7
:1009C0002074696D656F75740D0A000000000038B1
:1009D00000401C455B2530346C755D205241573D0D
:1009E0003078253034582028253575292020536942
:1009F000676E65643D252D36642020566D763D2555
:100A00002E32660D0A000000FEE7704772B6FEE760
:100A10002DE9F0410446876D00F062F9064694F82E
:100A200035000025022806D08020606584F8345007
:100A30000120BDE8F0812068016821F01601016005
:100A40002068416921F080014161206C08B9A06CE7
:100A500020B12068016821F0080101602068016868
:100A600021F0010101600CE000F03AF9801B05283B
:100A700007D920206065032084F8350084F83450BD
:100A8000D7E720680068C007EED194F85C103F20DB
:100A90008840B860012084F8350084F83450002084
:100AA000C7E790F83510022903D080214165012065
:100AB0007047052180F835100068016821F00101B8
:100AC000016000207047000070B5044600F008F98E
:100AD0000546601C02D004480078044400F000F988
:100AE000401BA042FAD370BD040000202DE9F84F4E
:100AF000DFF8B8A10022012403254FF00F090AF105
:100B0000040BAAF1040E00BF0B6804FA02F633408E
:100B1000B34273D10F7907F00307012F01D0022FE1
:100B200016D187684FEA420805FA08FC27EA0C0745
:100B3000D1F80CC00CFA08FC4CEA070CC0F808C04D
:100B40004768B7430E79C6F3001696403E434660A9
:100B50000E79F643B6070DD0C768560005FA06FCB5
:100B600027EA0C07D1F808C00CFA06FC4CEA070C7F
:100B7000C0F80CC00E7906F00306022E10D1D6087C
:100B800000EB8608D8F8206057074FEAD76C09FABF
:100B90000CF7BE430F6907FA0CF73743C8F820700B
:100BA00006684FEA420C05FA0CF7BE430F7907F0CE
:100BB000030707FA0CF7374307604E6816F4403F07
:100BC0006DD03B4E376847F480473760366822F077
:100BD000030706F480460096364E07EB060CDCF859
:100BE000086897073F0F09FA07F826EA0806DFF8B2
:100BF000C880404503D14FF000081EE04FE0DFF809
:100C0000BC80404502D14FF0010816E0DFF8B0800B
:100C1000404502D14FF002080FE0DFF8A8804045C0
:100C200002D14FF0030808E0DFF89C80404502D174
:100C30004FF0040801E04FF0070808FA07F848EA07
:100C40000608CCF80888DAF800605746D1F804C0E6
:100C50009E435FEACC2C00D51E433E60DBF800606B
:100C60005F46D1F804C09E435FEA8C2C00D51E433A
:100C70003E60DEF800607746D1F804C09E435FEA2C
:100C80008C3C00D51E433E60084F083F3E68D1F8BB
:100C900004C09E435FEACC3C00D51E433E60521C1C
:100CA000102AFFF431AFBDE8F88F0000083C014086
:100CB000443802400030014000000240000402407D
:100CC00000080240000C0240001002400069084089
:100CD00000D0012070470AB1816170470904FBE729
:100CE00001488068704700000400002002488168C5
:100CF0000278114481607047040000200B4810B551
:100D0000016841F400710160016841F48061016093
:100D1000016841F480710160032000F06FF80F203A
:100D200000F006F800F024F8002010BD003C02405E
:100D300070B50D4D04464FF47A712878B1FBF0F090
:100D40000A490968B1FBF0F000F0D3FE48B9102C55
:100D500007D200222146501E00F030F800206C60BF
:100D600070BD012070BD00000400002010000020B4
:100D70000A4808B5016841F480410160006800F448
:100D8000804000900548001F016841F080510160DB
:100D9000006800F08050009008BD00004438024018
:100DA000002809DB00F01F0201219140400980006A
:100DB00000F1E020C0F8001170470000F0B40E4BC5
:100DC0001B680C46C3F30223C3F10705042D00D9A9
:100DD0000425191D072901D2002300E0DB1E01268E
:100DE00006FA05F1491E214099409E40761E1640A4
:100DF0003143F0BC01F0B0BD0CED00E0064900F05D
:100E0000070208684FF6FF03184040EA0220034A31
:100E100010430860704700000CED00E00000FA0588
:100E20002DE9F0470E46050065D0DFF81481D8F8AB
:100E30000000F7B200F00700B04207D288F8007057
:100E4000D8F8000000F00700B04254D128683D4CAB
:100E5000810712D5400703D5206840F4E050206098
:100E60002878000703D5206840F46040206020689F
:100E7000A96820F0F000084320602878C0072DD032
:100E8000304968680839012812D0022813D0032895
:100E900011D00968890700292DDA216821F00301A2
:100EA00001432160FFF71CFF814641F2883A0EE0C2
:100EB00009688903EFE709688901ECE7FFF710FF8C
:100EC000A0EB0901514502D90320BDE8F087206855
:100ED000696800F00C00B0EB810FEFD1D8F800107A
:100EE000404601F00701B14207D90770006800F0E1
:100EF0000700B04201D00120E7E72878400705D578
:100F00002068E96820F4E050084320602878000752
:100F100006D52068296920F4604040EAC1002060BD
:100F200000F038F82168084AC1F30311515CC84049
:100F30000649086006480068FFF7FAFE0020C4E78B
:100F4000003C0240083802409632000810000020A1
:100F5000080000200448054900680968044AC1F3F4
:100F60008221515CC84070471000002008380240C0
:100F7000A63200080448054900680968044AC1F31C
:100F80004231515CC84070471000002008380240D0
:100F9000A6320008154810B5006810F00C0214487D
:100FA00013D04110042A0FD0082A0ED10F4C241F51
:100FB0002268236802F03F025B0207D52068C0F375
:100FC0008810A0FB010106E0084610BD2168C1F3AE
:100FD0008811A1FB00010023FFF7F8F82168C1F395
:100FE0000141491C4900B0FBF1F010BD0838024036
:100FF0000024F4002DE9F84F04006ED02078DFF8CB
:101000004C93C007A9F104054AD009F10400016816
:10101000C1F38101012908D00068C0F381000228D2
:101020000AD1D9F80000400206D52868800337D5D8
:1010300060680028E1D033E06068B0F5803F10D0F0
:10104000B0F5A02F286810D020F4803028602868E0
:1010500020F4802028606068A8B1FFF741FE0646B2
:101060000DE0286840F48030F4E740F480202860E8
:10107000F7E700BFFFF734FE801B642873D82868A9
:101080008003F7D50CE0FFF72BFE064605E000BF16
:10109000FFF726FE801B6428F0D828688003F7D469
:1010A0002078DFF8AC8280074FF0000A3ED5A748D1
:1010B000001D016811F00C0F08D00068C0F381001A
:1010C00002280BD1D9F80000400207D42868800715
:1010D00016D5E068012800D112E033E1E068B8B12C
:1010E0000120C8F80000FFF7FBFD064605E000BF41
:1010F000FFF7F6FD801B0228C0D828688007F7D5C7
:101100002868216920F0F80040EAC10028600DE05D
:10111000C8F800A0FFF7E4FD064604E0FFF7E0FD95
:10112000801B02281FD828688007F7D42078000782
:1011300022D5864F87486169703771B101210160FE
:10114000FFF7CEFD064604E0FFF7CAFD801B02282C
:1011500009D838688007F7D50EE0C0F800A0FFF77F
:10116000BFFD064605E082E0FFF7BAFD801B0228BE
:101170007DD838688007F7D42078400768D5DFF835
:10118000CCB100270BF13C0BDBF80000C0000BD406
:10119000DBF8001041F08051CBF80010DBF80000C4
:1011A000012700F0805000906B4E3068C00510D4CD
:1011B000306840F480703060FFF792FD009005E0E9
:1011C000FFF78EFD0099401A022850D83068C005FC
:1011D000F6D55E4EA0686C3601280FD00528306821
:1011E00010D020F001003060306820F00400306042
:1011F000A068B8B1FFF774FD00900FE0306840F0D0
:101200000100F4E740F004003060F7E7FFF768FD05
:101210000099411A41F28830814266D830688007CF
:10122000F4D50EE0FFF75CFD009007E0FFF758FDF6
:101230000099411A41F28830814256D830688007BF
:10124000F4D42FB1DBF8001021F08051CBF800105E
:10125000A069C8B33D49091D0968C1F3810102298C
:101260004AD00228504607D0C8F8600000E03CE0B1
:10127000FFF736FD04463BE04746C8F86000FFF73D
:101280002FFD064605E000BFFFF72AFD801B022860
:101290002BD828688001F7D4D4E907010843A16A54
:1012A0002E4A490802EB0141626A41EA8211084371
:1012B00094F82C1040EA0161C9F80010012038664A
:1012C000FFF70EFD044606E03EE000BFFFF708FD15
:1012D000001B022809D828688001F7D534E000BF38
:1012E000FFF7FEFC001B022802D90320BDE8F88F9F
:1012F00028688001F4D427E00128F7D0D9F800004D
:10130000E26900F4800191421CD1226A00F03F01A1
:10131000914217D147F6C071626A0140B1EB821F5A
:1013200010D1A26A4FF0FF3300F4403103EB5202B8
:10133000B1EB024F06D194F82C1000F07060B0EBC6
:10134000016F01D00120D1E70020CFE7043802402F
:1013500000004742800E4742007000400000FFFF3F
:101360007047000038B5016804464A688868C04381
:10137000430606D5C30704D1D3435B0601D4216CD1
:1013800005E0830708D4D3431B0605D4616C01B084
:101390002046BDE830400847830603D5430601D503
:1013A000C30551D4D3439B064ED443060AD494F8C4
:1013B0005130032B49D0636D43F004036365CB6860
:1013C0008B680093830609D4636D43F00103636562
:1013D0008B6800930B6823F040030B60C00506D4B4
:1013E000606D40F008006065206880680090606D66
:1013F000002829D02068416821F0E00141600120E7
:1014000084F85100900701D4D00722D020684168A9
:1014100021F003014160114DE06C40B10565E06CC5
:10142000FFF73FFB18B1606D40F040006065A06CB5
:10143000002809D00565A06CFFF733FB002803D016
:10144000606D40F04000606538BDC86888680090F5
:1014500038BD2046FFF784FF38BD0000B9220008E0
:1014600070B5040009D0606A002540B1256165614E
:10147000A56294F8510040B10CE0012070BD606895
:10148000B0F5827FF4D0E561F2E784F85050204651
:1014900000F044F8022084F851002068016821F02F
:1014A00040010160A088218900F4827001F40441A8
:1014B0000843A18901F400610843217C01F0020185
:1014C0000843217D01F001010843218B01F40071E3
:1014D0000843217F01F03801084394F8201001F0FF
:1014E00080010843218D01F4005108432168086000
:1014F000A069042101EA104094F8241001F01001C1
:101500000843216848602068C16921F40061C16115
:101510006565012084F85100002070BDF0B587B0EA
:10152000044614216846FEF789FE404823680024DB
:101530003F4902250326052783421AD13C4814302F
:10154000026842F480520260006800F48050059006
:10155000086840F001000860086802AA00F0010075
:101560000590E020CDE9000582E8D00069463148C9
:1015700058E02F4ADFF8C0C010323048634535D1FB
:10158000136843F480431360126802F480420592AA
:101590000A6842F004020A600A6802F00402059236
:1015A0000A6842F002020A60096802AB01F0020117
:1015B00005910C21CDE9001583E8D0006946FFF7BD
:1015C00095FA4FF48060CDE9000502AB694683E8E7
:1015D000D0001B48FFF78AFA002211462420FFF7AB
:1015E000EDFB2420FFF7DCFB07B0F0BD154FBB423D
:1015F000FAD1136843F400431360126802F4004206
:1016000005920A6842F004020A600968029401F037
:10161000040105914FF4E051CDE900150621CDE913
:1016200003616946FFF762FADEE70000003001401F
:1016300030380240000002400038004000080240FC
:1016400000040240003C00402DE9F84F044690F8A9
:1016500051001D4616460F46012838D1002F77D07D
:10166000002E75D060684FF00408B0F5827F01D17C
:10167000A06810B3FFF734FB824694F850000128AD
:1016800025D04FF0010984F8509084F851804FF034
:101690000008C4F85480A763A687E687C4F83080A2
:1016A000A4F83480A4F83680C4F84080C4F844809C
:1016B000A068B0F5004F0CD015E084F8518000937D
:1016C00013460A46204600F01CF9BDE8F88F0220B8
:1016D000FBE72068016821F0400101602068016893
:1016E00021F48041016020680168490603D4016843
:1016F00041F040010160E068C0B134E020688168D9
:10170000C90709D0007BA16B0870A06B401CA063C7
:10171000E08F401EE08709E0FFF7E2FAA0EB0A0045
:10172000A84202D3681C01D032E085B3E08F0028C4
:10173000E4D11BE020688168C9070AD0C068A16BAA
:101740000880A06B801CA063E08F401EE0870AE049
:101750001BE0FFF7C5FAA0EB0A00A84202D3681C01
:1017600001D015E09DB1E08F0028E3D15246294613
:10177000204600F0A9FD08B12020606584F8519052
:1017800084F85080606D00289FD001209DE7FFE71E
:1017900084F8519084F85080032096E72DE9F84FA3
:1017A000984616468A460446FFF79AFA814694F808
:1017B000510001281ED1BAF1000F73D0002E71D054
:1017C00094F85000012815D0012784F850700320A8
:1017D00084F8510000256565C4F830A0A686E68629
:1017E000A563A587E58765642564A068B0F5004F0B
:1017F00003D00CE00220BDE8F88F2068016821F0DA
:10180000400101602068016841F480410160206866
:101810000168490603D4016841F040010160E068B5
:10182000B0F5006F606803D048B3012E27D047E0C1
:1018300008B1012E1FD1206B21680088C86006E026
:1018400020688168890709D5216B0988C160206BF0
:10185000801C2063E08E401EE0860CE0FFF740FA1B
:10186000A0EB0901414503D3B8F1FF3F03D035E0B8
:10187000B8F1000F32D0E08E0028E1D123E0206BD8
:1018800021680078087306E02068816889070AD516
:10189000216B09780173206B401C2063E08E401E91
:1018A000E0860DE02BE0FFF71BFAA0EB09014145B4
:1018B00003D3B8F1FF3F03D010E0B8F1000F0DD013
:1018C000E08E0028E0D14A464146204600F02AFD3D
:1018D00008B120206065A06830B109E084F851703B
:1018E00084F85050032086E72068C1688068009023
:1018F00084F8517004F8505F60680028F3D001202C
:1019000079E72DE9FF4F81B01D46934604464FF01D
:1019100001090E9EFFF7E4F9074694F8510061684B
:10192000012806D0B1F5827F3CD1A168C9BB04284B
:1019300038D10298002871D0BBF1000FFBD0002DE8
:10194000F9D094F8500001282CD04FF0010A84F807
:1019500050A094F85100042802D0052084F85100CA
:101960004FF00008C4F85480C4F838B0E587A58764
:1019700002992163E586A586C4F84080C4F84480B6
:1019800020680168490603D4016841F04001016004
:10199000E068B0F5006F606808D0F0B3012D49D061
:1019A00081E0FFE7022005B0BDE8F08F08B1012D0E
:1019B00039D1206B21680088C860206B801C2063AF
:1019C000E08E401EE0862EE02068816889070FD5F2
:1019D000E18E69B1B9F1010F0AD1216B0988C160AB
:1019E000206B801C2063E08E401EE0864FF00009D3
:1019F00020688168C9070CD0E18F51B1C068A16B24
:101A00000880A06B801CA063E08F401EE0874FF031
:101A10000109FFF765F9C01B01E00BE067E0B04288
:101A200001D3701C50D1E08E0028CDD1E08F00286A
:101A3000CAD13EE0206B216800780873206B401CFF
:101A40002063E08E401EE0862DE0206881688907D3
:101A50000FD5E18E69B1B9F1010F0AD1216B097877
:101A60000173206B401C2063E08E401EE0864FF027
:101A7000000920688168C9070CD0E18F51B1C068A6
:101A8000A16B0870A06B401CA063E08F401EE08734
:101A90004FF00109FFF724F9C01BB04202D3701CBC
:101AA00001D011E086B1E08E0028CED1E08F002871
:101AB000CBD13A463146204600F034FC50B12020CC
:101AC000606584F8508012E084F851A084F850805A
:101AD000032068E7A06818B92068C1688068009092
:101AE00084F851A084F85080606D0028F1D0012066
:101AF00059E710B5401EB0F1807F01D3012010BD21
:101B00004FF0E02460610F21601700F025FF0020F6
:101B1000A06107202061002010BD704710B500684B
:101B2000094988420FD10949002048804FF480714B
:101B30000748FEF783FB05490122BDE81040491C18
:101B4000044800F0F9B910BD001001400000002069
:101B50002001002020020020F8B501680446086832
:101B6000CA684B6910F00F0F4FF0000559D003F011
:101B7000010602F49077374365D0C10705D0D1053F
:101B800003D5616C41F001016164410705D5D907B6
:101B900003D0616C41F002016164810705D5D9076A
:101BA00003D0616C41F004016164010707D502F0C4
:101BB0002001314303D0616C41F008016164616C24
:101BC00000293AD0800604D5900602D5204600F0C0
:101BD0006FFD20684069616CC0F38010090700D474
:101BE00060B3204600F03DFD20684069400621D5E5
:101BF0002068143050E8001F21F0400140E8001236
:101C0000002AF5D1E06BA8B172490165E06BFEF7DF
:101C100048FF002811D0E06B016D01B0BDE8F04035
:101C2000084783060FD593060DD52046BDE8F8403A
:101C300000F03EBD2046FFF771FFF8BD2046FFF7DC
:101C40006DFF6564F8BD266B2023012E7ED1C6068C
:101C50007CD5D6067AD508684868009048694FF068
:101C6000020640064DD5E26B106840684FF480775D
:101C70000004000C3AD0A18D814237D9E085D069AB
:101C8000B8422DD020680C3050E8001F21F480713C
:101C900040E80012002AF5D12068143050E8001FF7
:101CA00021F0010140E80012002AF5D1206814302B
:101CB00050E8001F21F0400140E80012002AF5D151
:101CC00084F84230256320680C3050E8001F21F072
:101CD000100140E80012002AF5D1E06BFEF798FEF3
:101CE0006663A08DE18D401A81B206E0A18D81422C
:101CF000A8D1D069B842A5D166632046FFF70DFF91
:101D0000F8BDA08DE18D401A81B2E08D0028F7D09A
:101D10000029F5D020680C3050E8002F22F4907292
:101D200040E80027002FF5D12068143050E8002F3C
:101D300022F0010240E80027002FF5D184F842305C
:101D4000256320680C3050E8002F00E006E022F008
:101D5000100240E80023002BF3D1CDE705062BD578
:101D6000150629D594F841002128C9D1A068B0F5FD
:101D7000805F01D12069B0B1206A411C21622168D5
:101D800000784860E08C401E0004000CE084B7D16D
:101D90002068C16821F08001C1602068C16841F0FD
:101DA0004001C160F8BD206A0088C0F308004860A7
:101DB000206A801C2062E5E74006F3D55006F1D585
:101DC000CA68204622F04002CA6084F8413000F020
:101DD0003FF9F8BD5526000870B5040004D094F80A
:101DE0004100002510B106E0012070BD84F840508C
:101DF000204600F023F8242084F841002068C168C0
:101E000021F40051C160204600F0B4FC2068016953
:101E100021F4904101612068416921F02A0141616A
:101E20002068C16841F40051C1606564202084F8D5
:101E3000410084F842006563002070BDF0B587B0B2
:101E4000044614216846FEF7F9F93749DFF8D4C093
:101E500027680022344B143902240325072633480F
:101E6000674522D11F6847F010071F601B6803F009
:101E7000100305930B6843F001030B60096802AF80
:101E800001F0010105916902CDE9001487E86400C1
:101E90006946FEF72BFE002211462520FEF78EFF35
:101EA0002520FEF77DFF07B0F0BDDFF884C0674551
:101EB00019D11D4B1B1F1F6847F400371F601B689B
:101EC00003F4003305930B6843F001030B600968CA
:101ED00002AB01F0010105910C21CDE9001483E86A
:101EE000640069461BE0134EB742DCD11E6846F021
:101EF00020061E601B6803F0200305930B6843F067
:101F000001030B600968029201F0010105914FF491
:101F1000C051CDE900140821CDE903516946FEF70F
:101F2000E5FDC0E7001001404438024000000240D7
:101F3000004400400014014090F84230202B01D0B2
:101F40000220704721B11AB10023036300F098BC4E
:101F50000120704710B50068114988421ED1114810
:101F600000224188FF290BD20F4C43786354491C4F
:101F700089B241800A2B09D162540121017005E028
:101F800042804FF480710848FEF758F90549012254
:101F9000BDE81040491C0548FFF7CEBF10BD00004A
:101FA000001001400000002020010020200200203D
:101FB0002DE9F843044690F84100984616460D4630
:101FC000202802D00220BDE8F88385B17EB1002030
:101FD0006064212084F84100FEF782FEA6848146D9
:101FE000E684A0682027B0F5805F02D003E00120DE
:101FF000E9E7206910B12E4600250EE000260CE02E
:102000008021204600F057FCA8B9C6B116F8010B94
:1020100021684860E08C401EE084E08C4B464FF025
:102020000002CDF800800028EAD14FF040012046A0
:1020300000F041FC40B184F841700320C3E735F85B
:10204000020BC0F30800E3E784F841700020BAE710
:102050007047FEE72DE9F04186B014216846FEF78F
:10206000EDF826480024016841F080010160016814
:1020700001F080010591016841F0040101600168EF
:1020800001F004010591016841F00101016001685E
:1020900001F001010591016841F002010160006851
:1020A000174F00F002000590012210213846FEF77C
:1020B00012FEDFF850804FF4407601223146404650
:1020C000FEF709FE022001258DE8310069463846F9
:1020D000FEF70CFD10200090CDE90154694638460A
:1020E0000394FEF703FD0096CDE90154694640468E
:1020F0000394FEF7FBFC06B0BDE8F08130380240E7
:102100000000024000080240104810B50E4901606E
:102110004FF482714160002102228160C0E9031204
:1021200001224261520282612822C0E907214162F4
:1021300081620A21C162FFF793F9002803D0BDE84C
:102140001040FEF763BC10BD0030014018000020B5
:10215000104810B50E4901604FF4827141600021B2
:1021600002228160C0E903120122426152028261AF
:102170001022C0E90721416281620A21C162FFF792
:102180006FF9002803D0BDE81040FEF73FBC10BD3A
:102190000038004070000020104810B50E49016062
:1021A0004FF482714160002102228160C0E9031274
:1021B00001224261520282611022C0E9072141627C
:1021C00081620A21C162FFF74BF9002803D0BDE804
:1021D0001040FEF71BBC10BD003C0040C8000020B2
:1021E0000C4810B50A4901604FF4E131416000210B
:1021F00081600C22C160C0E904128161C161FFF7F6
:10220000EBFD002803D0BDE81040FEF7FFBB10BD7A
:1022100000100140200200200C4810B50A4901605E
:102220004FF4E1314160002181600C22C160C0E9BE
:1022300004128161C161FFF7CFFD002803D0BDE822
:102240001040FEF7E3BB10BD0044004068020020D0
:10225000124810B5104901604FF4E131416000218E
:1022600081600C22C160C0E904128161C161FFF785
:10227000B3FD08B1FEF7CAFB002201214720FEF79B
:102280009DFD4720FEF78CFDBDE81040012204496A
:102290000248FFF751BE000000140140B0020020C8
:1022A00001000020FEE7FEE7704700000148FFF74D
:1022B00059B800007000002010B5806B0021C18764
:1022C000C186FFF74DF810BDF8B5044640684FF4DD
:1022D0008273984221D1A0684FF48065B0F5004F19
:1022E00001D0A8420AD12068066826F040060660A0
:1022F0006068984211D1A068A8420ED000920B46A7
:1023000000228021204600F043F8002804D0606DB0
:1023100040F0200060650320F8BD00920B460022CB
:102320000121EFE7F8B515460E460B46009204462C
:102330000122022100F02CF8A0B9134813490068CB
:10234000B0FBF1F04FF47A71484300906068B0F54B
:10235000827F0DD13346002280212046009500F077
:1023600017F870B1606D40F0200060650320F8BD83
:10237000009830B1401E009020688068C04300067D
:10238000F6D50020F8BD00001000002000366E01D8
:102390002DE9F8431E46914688460446089DFEF7FF
:1023A0009FFC401B351AFEF79BFC07462648006839
:1023B000C0F3CB3068430AE0701C09D0FEF790FCF4
:1023C000C01BA8420FD275B10098B8B3401E009050
:1023D0002068816838EA010033D000214945EBD1FB
:1023E0000020BDE8F8832068416821F0E0014160E9
:1023F0006068B0F5827F0BD1A068B0F5004F02D0C5
:10240000B0F5806F04D12068016821F040010160BF
:10241000A06AB0F5005F09D12068016821F400517D
:1024200001602068016841F400510160012084F8D6
:102430005100002084F850000320D2E7FFE7002578
:10244000C6E70121CAE70000100000207047FEF730
:102450004DBC000030B593B030216846FDF7EEFE6C
:1024600014210CA8FDF7EAFE1E480024016841F083
:1024700080510160006800F0805011901A48016896
:1024800021F4404141F4004101600068022500F45C
:102490004040119001200090000401908001CDE99E
:1024A0000650082008904FF4A870099004200A9064
:1024B0000B906846FEF79EFD08B172B6FEE70F204E
:1024C000CDE90C054FF48050CDE90E4002210CA857
:1024D0001094FEF7A5FC002801D072B6FEE713B0F9
:1024E00030BD0000403802400070004002480168E2
:1024F00041F470010160704788ED00E008B10422EA
:1025000000E000220021084600F07CB82DE9F041EF
:102510000122314D140221462846FEF7DCFB0A2039
:10252000FEF7D2FA07220121002000F06BF800200C
:10253000FFF7E4FF294A1021002000F063F8C322CE
:102540006C21002000F05EF8254A7021002000F088
:1025500059F8244A1421002000F054F84FF42022A6
:102560006D21002000F04EF805222321002000F00C
:1025700049F841F2883632462421002000F042F822
:1025800000222521104600F03DF8174F26213A463B
:10259000002000F037F83A462821002000F032F8F9
:1025A00032462A21002000F02DF80A222B2100209B
:1025B00000F028F84FF47A722C21002000F022F865
:1025C00000222721104600F01DF821462846BDE8CC
:1025D000F0410022FEF77FBB00080240020807001E
:1025E0001E260CC4FFFF0F00400D0300002805D17C
:1025F0000A464FF400710248FEF76DBB70470000B9
:102600000008024010B586B00446100A8DF80F008D
:10261000100C8DF80E00100E8DF80D0041F08000AA
:102620008DF80C008DF8102000212046FFF7DEFF0A
:1026300064200090052301AA03A90548FFF761F96A
:1026400001212046FFF7D2FF9DF9040006B010BD1E
:10265000C800002010B5806B0021C185FFF75EFA2D
:1026600010BD01680C3151E8002F22F4907241E84E
:102670000023002BF5D10168143151E8002F22F01E
:10268000010241E80023002BF5D1016B012909D19A
:1026900001680C3151E8002F22F0100241E80023BC
:1026A000002BF5D1202180F84210002101637047F2
:1026B00008B590F84210222901D0022008BD826896
:1026C0004FF480539A4201D1016921B1816A9A4243
:1026D0001BD04AB10AE00268816A5268C2F308025C
:1026E0000A80816A891C08E0026972B10268526836
:1026F00002F07F020A70816A491C8162C18D491E05
:102700000904090CC18503D01BE002685268F1E797
:102710000168CA6822F02002CA600168CA6822F40F
:102720008072CA6001684A6922F001024A61202170
:1027300080F8421000214163026B012A03D0FFF7A9
:1027400009FC002008BD016301680C3151E8002F2D
:1027500022F0100241E80023002BF5D101680A683D
:10276000D20602D50A6849680091818DFFF7D5F934
:10277000E7E7000070B5044600680169E26821F4EB
:102780004051114301612169A068E2690843616910
:10279000114308432168CA6849F20C639A43024313
:1027A000CA6020684169A26921F440711143416106
:1027B00031492068884202D03049884202D1FEF770
:1027C000D9FB01E0FEF7C6FBE2690023192164256D
:1027D0003226B2F5004F626828D0A0FB0101930FAA
:1027E0009200FDF7F3FC0146B0FBF5F06FF0180224
:1027F000504301EB800006EB0010B0FBF5F000F059
:10280000F002B1FBF5F002EB0012B1FBF5F06FF056
:102810001803584301EB800006EB0010B0FBF5F005
:1028200000F00F0021681044886070BDA0FB01011A
:1028300092185B41FDF7CAFC0146B0FBF5F00201BE
:10284000B1FBF5F06FF01803584301EB800006EB85
:10285000C000B0FBF5F000F0F80002EB4002B1FB65
:10286000F5F0584301EB800006EBC000B0FBF5F03B
:1028700000F00700D6E700000010014000140140FE
:1028800081628285C28500214164222180F8421044
:10289000016921B10168CA6842F48072CA600168A6
:1028A0004A6942F001024A610068C16841F02001B2
:1028B000C160002070472DE9F843984617460D4641
:1028C0000446089E24E0701C22D0FEF709FAA0EB13
:1028D0000800B0421AD8CEB12068C168490717D5A0
:1028E000802D15D0402D13D00168C94309070FD49E
:1028F00001680025406800902046FFF7B2FE0820DE
:10290000606484F840500120BDE8F8830320FBE7B1
:102910002068006835EA000004D00020B842D2D018
:102920000020F1E70120F9E70148FFF715B90000A1
:1029300020020020FEE700000FB4054B10B503A9EC
:10294000044A029800F0EAF810BC5DF814FB00009D
:102950004D320008140000200907090E002804DB8E
:1029600000F1E02080F80014704700F00F0000F143
:10297000E02080F8141D704702E008C8121F08C14B
:10298000002AFAD170477047002001E001C1121FF0
:10299000002AFBD1704700002DE9FF5F82B00021C3
:1029A000DDE90430020DDDF840B0034318D044F6F1
:1029B0001050A2F2FF3242431514119801281FD083
:1029C000A5EB0B00401C5FEA000A4FF000064E4FDB
:1029D000DFF83891B046504615D5CAF1000413E02F
:1029E000119801244AA3012801D16FEA0B01029832
:1029F000119AC0E90031C0E9024206B0BDE8F09F7B
:102A0000CBF10000DFE704460021404A491842EBC1
:102A10000450CDE9001012E0E00707D032463B46F3
:102A200040464946FDF704FD8046894632463B460E
:102A300010461946FDF7FCFC06460F466410002CB4
:102A4000EAD1DDE90401DDE90023BAF1000F06DA7D
:102A5000FDF7EEFC42464B46FDF7EAFC05E0FDF7CC
:102A600059FD42464B46FDF755FD04460E460022F1
:102A7000284BFDF7D7FD03D84FF0FF30014607E0A4
:102A80000022254B20463146FDF72BFCFDF7B1FD1A
:102A9000102409E0002C0ADB0A220023FDF796FB34
:102AA000039B30321A55641E50EA0102F2D1641CB5
:102AB000039AC4F111031444119A012A03D001228C
:102AC00008430DD10AE0084304D000204FF0110B59
:102AD000119072E7A3EB0B056D1E0DE05B4504DD65
:102AE0004FF0000205F1010504E003DA4FF00002A7
:102AF000A5F10105002AECD002981199C0E9023134
:102B0000C0E9004579E70000000014400000F03FF4
:102B1000300000000000F0430000E03F2DE9FF4FCF
:102B200095B09B468946064600250FE2252877D1B9
:102B300000242746F84A0121059400E0044316F8D2
:102B4000013F203B01FA03F01042F7D130782A28E8
:102B500011D06FF02F033078A0F13002092A16D877
:102B6000059A44F0020402EB820203EB4202104495
:102B7000761C0590EFE759F8042B0592002A03DA3A
:102B8000504244F40054059044F00204761C30781E
:102B90002E2816D116F8010F44F004042A280DD06F
:102BA0006FF02F023078A0F13003092B09D807EB22
:102BB000870302EB4303C718761CF3E759F8047B3D
:102BC000761C30786C280FD006DC4C2817D068288B
:102BD0000DD06A2814D104E0742810D07A280FD1BF
:102BE0000DE044F400140AE044F4801401E044F4DD
:102BF00040147278824202D104F58014761C761C4F
:102C0000307866280BD013DC582877D009DC0028F0
:102C100075D04528F6D04628F4D047281AD19DE132
:102C200018E0632835D0642879D0652812D195E161
:102C3000702873D008DC6728F1D069286FD06E281F
:102C40000DD06F2806D1B5E073282CD0752875D02B
:102C5000782874D05A46179990476D1C75E1C4F3D3
:102C60000250022809D003280DD0D9F800100428FA
:102C70000DD00D6009F1040967E1D9F80010EA17D9
:102C8000C1E90052F6E7D9F800100D80F2E70D70A7
:102C9000F0E719F8041B8DF8001000208DF80100F2
:102CA000EA46012003E059F804AB4FF0FF3061071A
:102CB0004FF0000102D40DE008F101018846B9424D
:102CC0000FDA8045F8DB1AF808100029F4D108E083
:102CD00008F1010188468142FADB1AF80810002940
:102CE000F6D105985B46A0EB080721463846179AAF
:102CF00000F094FA284400EB080507E04DE029E1D4
:102D00000DE01AF8010B5A4617999047B8F10108DF
:102D1000F7D25B4621463846179A13E142E00A2271
:102D20000092C4F302524FF0000A022A08D059F868
:102D300004CB032A4FEAEC710AD00DE029E02AE027
:102D400009F1070121F00702F2E802C1914609E00A
:102D50000FFA8CFC4FEAEC71042A03D14FFA8CFC79
:102D60004FEAEC71002907DA0A460021DCF1000C79
:102D700061EB02012D2202E0220504D52B228DF801
:102D80000420012203E0E20701D02022F7E7904669
:102D900059E00A2102E010220DE010214FF0000A54
:102DA00000910BE010224FF0000A44F004040827C1
:102DB000009203E008224FF0000A0092C4F302528E
:102DC000022A05D059F804CB0021032A08D009E0D3
:102DD00009F1070121F00702F2E802C1914605E07E
:102DE0001FFA8CFC042A01D10CF0FF0C4FF00008F4
:102DF000220728D5702806D0009B83F0100353EAE1
:102E00000A0305D00EE040228DF80420012208E0DC
:102E10005CEA010206D030228DF804208DF805000E
:102E200002229046009B83F0080353EA0A030AD16A
:102E30005CEA010201D1620705D530228DF8042039
:102E40004FF001087F1E582804D034A003900EA82C
:102E500002900DE036A0F9E753466046009AFDF770
:102E6000B5F984460398825C0298401E0290027075
:102E70005CEA0100F0D1029806A9081A00F1200AC4
:102E8000600702D524F4803400E00127574502DDB5
:102E9000A7EB0A0000E0002000EB0A010090059873
:102EA0004144401A0590E00306D45B462146179A38
:102EB000059800F0B3F90544002706E001A85A463A
:102EC000C05D179990476D1C7F1C4745F6DBE003FA
:102ED0000CD55B462146179A059800F09FF90544EA
:102EE00004E030205A46179990476D1C0099481EFF
:102EF00000900029F5DC08E0029802995A46007813
:102F0000491C0291179990476D1CBAF10001AAF172
:102F1000010AF1DC65E1000009280100303132339B
:102F20003435363738396162636465660000000005
:102F300030313233343536373839414243444546EF
:102F40000000000000F058F90544761C3078002895
:102F50007FF4ECAD19B02846BDE8F08F620700D4CD
:102F6000062709F1070222F0070CFCE80223E146DC
:102F700003F000485FEA080C02D00FF2702C0DE05D
:102F80005FEA045C02D50FF2682C07E05FEAC47CBC
:102F900002D00FF2602C01E0AFF2700C4FF0FF385E
:102FA00023F00043CDF850C065280CD006DC45283E
:102FB00009D046281DD047283DD13DE0662818D0CD
:102FC00067287ED138E00021112F01DB112000E0BD
:102FD000781CCDE9000106A90EA8FFF7DDFCDDE9AC
:102FE0000F010E9A03910021009207F1010A04914A
:102FF0004DE04FF000400097CDE9011006A90EA862
:10300000FFF7CAFCDDE90F0203920E9B1199002223
:10301000DDF80CA00093049211B9791C00EB010AB1
:10302000B7EB0A0004D4C0F1FF3007F1010A0490A5
:10303000AAEB0700019044E0012F00DA01270021EC
:10304000112F01DD112000E03846CDE9000106A96D
:103050000EA8FFF7A1FCDDE90F010E9A03910021F4
:1030600004910092BA4621070CD40399514500DA25
:103070008A46BAF1010F05DD009AAAF10101515CFF
:10308000302908D0B84202DA10F1040F06DA012123
:10309000CDE9011015E0AAF10101E9E7002805DCFE
:1030A000049901440491AAEB000102E0411C51453E
:1030B00000DD8A460499401A401C01904FF0004000
:1030C0000290200704D40198504501DBCDF804801C
:1030D00000208DF84F0002980DF14F07B0F1004F1E
:1030E00025D02B200E9002984FF0020800280CDA11
:1030F000404202902D200E9007E00A210298FDF731
:10310000BBF83031029007F8011DB8F10001A8F1B9
:103110000108F2DC02980028EFD1791E0E980870A1
:10312000307800F0200040F0450007F8020D12A8AA
:10313000C01B00F107081498007800B1012000EBD3
:103140000A01019801EBE07105984144401A401EC4
:103150000590E00306D45B462146179A059800F0D7
:103160005DF805441498007818B15A4617999047AD
:103170006D1CE00324D55B462146179A059800F0A4
:103180004DF805441CE00498002807DBDDE9030145
:10319000884203DD0098405C179901E017993020C0
:1031A0005A469047049805F10105401C0490019887
:1031B000401E019004D12E205A46179990476D1C4D
:1031C000BAF10001AAF1010ADDDC05E017F8010BF4
:1031D0005A46179990476D1CB8F10001A8F10108F3
:1031E000F4DC5B462146179A0598ABE62D000000FB
:1031F0002B000000200000002DE9F04104460025CE
:103200001E461746880404D405E039462020B047FE
:103210006D1C641EF9D52846BDE8F0812DE9F0410A
:10322000044600251E469046C80301D5302700E01D
:103230002027880404D505E041463846B0476D1C78
:10324000641EF9D52846BDE8F081000038B5044673
:103250008DF800006423012269460248FEF7A8FEAB
:10326000204638BDB0020020FDF748FDFFF7F2F818
:10327000FEF7F0FEFEF7ECFFFEF78EFFFEF768FFAD
:10328000FEF7AEFFFEF7C8FFFEF73EFFFFF73EF981
:10329000FDF786FAFEE700000000000000000102D2
:1032A00003040607080900000000010203040000EF
:1032B000D032000800000020180000007829000823
:1032C000E832000818000020E00600008829000805
:1032D00000000000010000001000000000000000DD
:0832E0000024F40000000000CE
:040000050800019559
:00000001FF
