:020000040800F2
:10000000B8050020A90100081F1500080F140008FA
:100010001D150008C5020008A51B0008000000000F
:100020000000000000000000000000004D16000865
:10003000C702000800000000211500084F16000844
:10004000C3010008C3010008C3010008C301000880
:10005000C3010008C3010008C3010008C301000870
:10006000C3010008C3010008C3010008C301000860
:10007000C3010008C3010008C3010008C301000850
:10008000C3010008C3010008C3010008000000000C
:10009000000000000000000000000000C301000894
:1000A000C3010008C3010008C3010008C301000820
:1000B000C3010008C3010008C3010008C301000810
:1000C000C3010008C3010008C3010008C301000800
:1000D000C3010008C3010008C301000800000000BC
:1000E000C3010008C3010008C301000800000000AC
:1000F000000000000000000000000000C301000834
:1001000000000000C3010008C3010008C30100088B
:1001100000000000000000000000000000000000DF
:10012000C3010008C3010008C3010008C30100089F
:10013000C3010008000000000000000000000000F3
:10014000000000000000000000000000C3010008E3
:10015000C3010008C3010008C3010008751B0008A3
:10016000C3010008C30100080000000000000000F7
:10017000000000000000000000000000000000007F
:1001800000000000C30100080000000000000000A3
:10019000C3010008DFF80CD000F082F800480047E7
:1001A000E51B0008B80500200648804706480047C0
:1001B000FEE7FEE7FEE7FEE7FEE7FEE7FEE7FEE717
:1001C000FEE7FEE7ED160008950100082DE9F05F57
:1001D0000546002092469B468846064681464024B6
:1001E0001BE0284641464746224600F048F8534661
:1001F0005A46C01A914110D311461846224600F0C3
:100200002FF82D1A67EB01084F46224601200021E6
:1002100000F026F817EB00094E41201EA4F101045E
:10022000DFDC484631462A464346BDE8F09FD2B25D
:1002300001E000F8012B491EFBD270470022F6E7CF
:1002400010B513460A4604461946FFF7F0FF20464C
:1002500010BD421C10F8011B0029FBD1801A704709
:10026000202A04DB203A00FA02F100207047914076
:10027000C2F1200320FA03F3194390407047202A6B
:1002800004DB203A21FA02F00021704721FA02F340
:10029000D040C2F120029140084319467047000047
:1002A000064C074D06E0E06840F0010394E80700C3
:1002B00098471034AC42F6D3FFF770FF5C1C00087F
:1002C0007C1C0008FEE7704772B6FEE72DE9F0419E
:1002D0000446876D00F05EF9064694F83500002567
:1002E000022806D08020606584F834500120BDE8E3
:1002F000F0812068016821F01601016020684169E1
:1003000021F080014161206C08B9A06C20B1206807
:10031000016821F0080101602068016821F00101F5
:1003200001600CE000F036F9801B052807D9202079
:100330006065032084F8350084F83450D7E72068DE
:100340000068C007EED194F85C103F208840B86088
:10035000012084F8350084F834500020C7E790F875
:100360003510022903D08021416501207047052105
:1003700080F835100068016821F00101016000205B
:100380007047000070B5044600F004F90546601C93
:1003900002D004480078044400F0FCF8401BA0425E
:1003A000FAD370BD040000202DE9F84FDFF8B8A1A2
:1003B0000022012403254FF00F090AF1040BAAF1D2
:1003C000040E00BF0B6804FA02F63340B34273D147
:1003D0000F7907F00307012F01D0022F16D187688C
:1003E0004FEA420805FA08FC27EA0C07D1F80CC0CE
:1003F0000CFA08FC4CEA070CC0F808C04768B74381
:100400000E79C6F3001696403E4346600E79F643D9
:10041000B6070DD0C768560005FA06FC27EA0C0798
:10042000D1F808C00CFA06FC4CEA070CC0F80CC066
:100430000E7906F00306022E10D1D60800EB8608CE
:10044000D8F8206057074FEAD76C09FA0CF7BE437B
:100450000F6907FA0CF73743C8F8207006684FEAAF
:10046000420C05FA0CF7BE430F7907F0030707FAB1
:100470000CF7374307604E6816F4403F6DD03B4E93
:10048000376847F480473760366822F0030706F480
:1004900080460096364E07EB060CDCF80868970796
:1004A0003F0F09FA07F826EA0806DFF8C88040453A
:1004B00003D14FF000081EE04FE0DFF8BC8040455C
:1004C00002D14FF0010816E0DFF8B080404502D1BC
:1004D0004FF002080FE0DFF8A880404502D14FF04E
:1004E000030808E0DFF89C80404502D14FF0040883
:1004F00001E04FF0070808FA07F848EA0608CCF8C8
:100500000888DAF800605746D1F804C09E435FEAD5
:10051000CC2C00D51E433E60DBF800605F46D1F86E
:1005200004C09E435FEA8C2C00D51E433E60DEF87B
:1005300000607746D1F804C09E435FEA8C3C00D54A
:100540001E433E60084F083F3E68D1F804C09E43FA
:100550005FEACC3C00D51E433E60521C102AFFF4DB
:1005600031AFBDE8F88F0000083C0140443802403C
:100570000030014000000240000402400008024038
:10058000000C0240001002400AB18161704709046A
:10059000FBE700000148806870470000040000206D
:1005A000024881680278114481607047040000208D
:1005B0000B4810B5016841F400710160016841F415
:1005C00080610160016841F480710160032000F0E6
:1005D0006FF80F2000F006F800F024F8002010BD9E
:1005E000003C024070B50D4D04464FF47A712878F6
:1005F000B1FBF0F00A490968B1FBF0F000F096FC9D
:1006000048B9102C07D200222146501E00F030F8C5
:1006100000206C6070BD012070BD0000040000204F
:10062000100000200A4808B5016841F480410160CB
:10063000006800F4804000900548001F016841F008
:1006400080510160006800F08050009008BD0000FB
:1006500044380240002809DB00F01F0201219140CC
:100660004009800000F1E020C0F800117047000050
:10067000F0B40E4B1B680C46C3F30223C3F107050D
:10068000042D00D90425191D072901D2002300E0FB
:10069000DB1E012606FA05F1491E214099409E40C5
:1006A000761E16403143F0BC01F07DBA0CED00E03F
:1006B000064900F0070208684FF6FF03184040EAB9
:1006C0000220034A10430860704700000CED00E070
:1006D0000000FA052DE9F0470E46050065D0DFF869
:1006E0001481D8F80000F7B200F00700B04207D23A
:1006F00088F80070D8F8000000F00700B04254D12C
:1007000028683D4C810712D5400703D5206840F486
:10071000E05020602878000703D5206840F460404E
:1007200020602068A96820F0F00008432060287845
:10073000C0072DD0304968680839012812D0022836
:1007400013D0032811D00968890700292DDA216800
:1007500021F0030101432160FFF71CFF814641F2B4
:10076000883A0EE009688903EFE709688901ECE738
:10077000FFF710FFA0EB0901514502D90320BDE8A6
:10078000F0872068696800F00C00B0EB810FEFD1B2
:10079000D8F80010404601F00701B14207D90770B0
:1007A000006800F00700B04201D00120E7E7287898
:1007B000400705D52068E96820F4E0500843206030
:1007C0002878000706D52068296920F4604040EAAF
:1007D000C100206000F038F82168084AC1F3031115
:1007E000515CC8400649086006480068FFF7FAFEF9
:1007F0000020C4E7003C024008380240441C0008C6
:10080000100000200800002004480549006809681D
:10081000044AC1F38221515CC84070471000002097
:1008200008380240541C000804480549006809685B
:10083000044AC1F34231515CC840704710000020A7
:1008400008380240541C0008154810B5006810F024
:100850000C02144813D04110042A0FD0082A0ED1DC
:100860000F4C241F2268236802F03F025B0207D569
:100870002068C0F38810A0FB010106E0084610BD07
:100880002168C1F38811A1FB00010023FFF79EFC42
:100890002168C1F30141491C4900B0FBF1F010BDD2
:1008A000083802400024F4002DE9F84F04006ED00F
:1008B0002078DFF84C93C007A9F104054AD009F16C
:1008C00004000168C1F38101012908D00068C0F368
:1008D000810002280AD1D9F80000400206D5286814
:1008E000800337D560680028E1D033E06068B0F558
:1008F000803F10D0B0F5A02F286810D020F48030B1
:100900002860286820F4802028606068A8B1FFF77C
:1009100041FE06460DE0286840F48030F4E740F4DC
:1009200080202860F7E700BFFFF734FE801B6428B3
:1009300073D828688003F7D50CE0FFF72BFE064636
:1009400005E000BFFFF726FE801B6428F0D828686A
:100950008003F7D42078DFF8AC8280074FF0000ADC
:100960003ED5A748001D016811F00C0F08D00068A3
:10097000C0F3810002280BD1D9F80000400207D44F
:100980002868800716D5E068012800D112E033E11D
:10099000E068B8B10120C8F80000FFF7FBFD06468B
:1009A00005E000BFFFF7F6FD801B0228C0D82868CD
:1009B0008007F7D52868216920F0F80040EAC100D7
:1009C00028600DE0C8F800A0FFF7E4FD064604E04B
:1009D000FFF7E0FD801B02281FD828688007F7D4A6
:1009E0002078000722D5864F87486169703771B13A
:1009F00001210160FFF7CEFD064604E0FFF7CAFDC6
:100A0000801B022809D838688007F7D50EE0C0F8A7
:100A100000A0FFF7BFFD064605E082E0FFF7BAFD44
:100A2000801B02287DD838688007F7D420784007DB
:100A300068D5DFF8CCB100270BF13C0BDBF80000E8
:100A4000C0000BD4DBF8001041F08051CBF800104F
:100A5000DBF80000012700F0805000906B4E3068FA
:100A6000C00510D4306840F480703060FFF792FD0C
:100A7000009005E0FFF78EFD0099401A022850D83B
:100A80003068C005F6D55E4EA0686C3601280FD0E0
:100A90000528306810D020F001003060306820F068
:100AA00004003060A068B8B1FFF774FD00900FE05B
:100AB000306840F00100F4E740F004003060F7E7F0
:100AC000FFF768FD0099411A41F28830814266D8EB
:100AD00030688007F4D50EE0FFF75CFD009007E07A
:100AE000FFF758FD0099411A41F28830814256D8EB
:100AF00030688007F4D42FB1DBF8001021F080516A
:100B0000CBF80010A069C8B33D49091D0968C1F3BD
:100B1000810102294AD00228504607D0C8F8600057
:100B200000E03CE0FFF736FD04463BE04746C8F8EE
:100B30006000FFF72FFD064605E000BFFFF72AFD26
:100B4000801B02282BD828688001F7D4D4E907013C
:100B50000843A16A2E4A490802EB0141626A41EA50
:100B60008211084394F82C1040EA0161C9F8001082
:100B700001203866FFF70EFD044606E03EE000BFA8
:100B8000FFF708FD001B022809D828688001F7D567
:100B900034E000BFFFF7FEFC001B022802D903204F
:100BA000BDE8F88F28688001F4D427E00128F7D049
:100BB000D9F80000E26900F4800191421CD1226A58
:100BC00000F03F01914217D147F6C071626A0140BF
:100BD000B1EB821F10D1A26A4FF0FF3300F4403115
:100BE00003EB5202B1EB024F06D194F82C1000F047
:100BF0007060B0EB016F01D00120D1E70020CFE79A
:100C00000438024000004742800E47420070004016
:100C10000000FFFF70B5040009D0606A002540B1F4
:100C200025616561A56294F8510040B10CE0012096
:100C300070BD6068B0F5827FF4D0E561F2E784F8BA
:100C40005050204600F044F8022084F851002068FB
:100C5000016821F040010160A088218900F48270C0
:100C600001F404410843A18901F400610843217C97
:100C700001F002010843217D01F001010843218BAD
:100C800001F400710843217F01F03801084394F812
:100C9000201001F080010843218D01F40051084328
:100CA00021680860A069042101EA104094F824102A
:100CB00001F010010843216848602068C16921F4EF
:100CC0000061C1616565012084F85100002070BD9C
:100CD00010B586B0044614216846FFF7AFFA1449F0
:100CE0002068884221D113480021026842F4004262
:100CF0000260006800F4004005900E481038026859
:100D000042F004020260006800F0040005904FF415
:100D1000E05000900220CDE901010320039006205D
:100D2000049069460448FFF73FFB06B010BD000081
:100D3000003C004040380240000802402DE9FF4FCF
:100D400081B01D46934604464FF001090E9EFFF701
:100D500021FC074694F851006168012806D0B1F5DE
:100D6000827F3CD1A168C9BB042838D102980028F1
:100D700071D0BBF1000FFBD0002DF9D094F85000DA
:100D800001282CD04FF0010A84F850A094F85100AB
:100D9000042802D0052084F851004FF00008C4F860
:100DA0005480C4F838B0E587A58702992163E586A9
:100DB000A586C4F84080C4F84480206801684906CC
:100DC00003D4016841F040010160E068B0F5006FB4
:100DD000606808D0F0B3012D49D081E0FFE7022020
:100DE00005B0BDE8F08F08B1012D39D1206B216825
:100DF0000088C860206B801C2063E08E401EE08667
:100E00002EE02068816889070FD5E18E69B1B9F1BC
:100E1000010F0AD1216B0988C160206B801C2063FF
:100E2000E08E401EE0864FF0000920688168C90707
:100E30000CD0E18F51B1C068A16B0880A06B801C01
:100E4000A063E08F401EE0874FF00109FFF7A2FB8F
:100E5000C01B01E00BE067E0B04201D3701C50D131
:100E6000E08E0028CDD1E08F0028CAD13EE0206B73
:100E7000216800780873206B401C2063E08E401EC0
:100E8000E0862DE02068816889070FD5E18E69B181
:100E9000B9F1010F0AD1216B09780173206B401C55
:100EA0002063E08E401EE0864FF0000920688168D4
:100EB000C9070CD0E18F51B1C068A16B0870A06B5D
:100EC000401CA063E08F401EE0874FF00109FFF750
:100ED00061FBC01BB04202D3701C01D011E086B18F
:100EE000E08E0028CED1E08F0028CBD13A463146A3
:100EF000204600F017FB50B12020606584F8508038
:100F000012E084F851A084F85080032068E7A068BC
:100F100018B92068C1688068009084F851A084F8EE
:100F20005080606D0028F1D0012059E710B5401EB7
:100F3000B0F1807F01D3012010BD4FF0E02460614B
:100F40000F21601700F02FFE0020A0610720206114
:100F5000002010BD7047000010B5006809498842A4
:100F60000FD10949002048804FF480710748FFF7EE
:100F700065F905490122BDE81040491C044800F00C
:100F8000B9B910BD00140140000000206C00002021
:100F90006C010020F8B5016804460868CA684B690E
:100FA00010F00F0F4FF0000559D003F0010602F4C6
:100FB0009077374365D0C10705D0D10503D5616C63
:100FC00041F001016164410705D5D90703D0616C87
:100FD00041F002016164810705D5D90703D0616C36
:100FE00041F004016164010707D502F0200131439B
:100FF00003D0616C41F008016164616C00293AD052
:10100000800604D5900602D5204600F077FC2068C3
:101010004069616CC0F38010090700D460B32046BA
:1010200000F045FC20684069400621D52068143056
:1010300050E8001F21F0400140E80012002AF5D1DD
:10104000E06BA8B172490165E06BFFF788F90028F1
:1010500011D0E06B016D01B0BDE8F0400847830698
:101060000FD593060DD52046BDE8F84000F046BCEC
:101070002046FFF771FFF8BD2046FFF76DFF65645E
:10108000F8BD266B2023012E7ED1C6067CD5D60660
:101090007AD508684868009048694FF00206400613
:1010A0004DD5E26B106840684FF480770004000C67
:1010B0003AD0A18D814237D9E085D069B8422DD090
:1010C00020680C3050E8001F21F4807140E80012C5
:1010D000002AF5D12068143050E8001F21F00101EA
:1010E00040E80012002AF5D12068143050E8001FB3
:1010F00021F0400140E80012002AF5D184F8423086
:10110000256320680C3050E8001F21F0100140E8F2
:101110000012002AF5D1E06BFFF7D8F86663A08DC6
:10112000E18D401A81B206E0A18D8142A8D1D0693B
:10113000B842A5D166632046FFF70CFFF8BDA08D2D
:10114000E18D401A81B2E08D0028F7D00029F5D05A
:1011500020680C3050E8002F22F4907240E80027FD
:10116000002FF5D12068143050E8002F22F0010242
:1011700040E80027002FF5D184F84230256320682D
:101180000C3050E8002F00E006E022F0100240E8AA
:101190000023002BF3D1CDE705062BD5150629D565
:1011A00094F841002128C9D1A068B0F5805F01D131
:1011B0002069B0B1206A411C216221680078486032
:1011C000E08C401E0004000CE084B7D12068C168A8
:1011D00021F08001C1602068C16841F04001C16018
:1011E000F8BD206A0088C0F308004860206A801CAF
:1011F0002062E5E74006F3D55006F1D5CA682046DF
:1012000022F04002CA6084F8413000F0FFF8F8BDD7
:10121000A118000870B5040004D094F8410000251E
:1012200010B106E0012070BD84F84050204600F067
:1012300023F8242084F841002068C16821F400517B
:10124000C160204600F0BCFB2068016921F4904198
:1012500001612068416921F02A0141612068C1686B
:1012600041F40051C1606564202084F8410084F895
:1012700042006563002070BD10B586B0044614219D
:101280006846FEF7DBFF18492068884229D11748D5
:101290000021026842F020020260006800F0200095
:1012A000059012481438026842F00102026000689A
:1012B00000F0010005904FF4C05000900220CDE9ED
:1012C0000101032003900820049069460848FFF7B5
:1012D0006BF8002211464720FFF7CAF94720FFF7B5
:1012E000B9F906B010BD00000014014044380240B6
:1012F0000000024090F84230202B01D002207047BD
:1013000021B11AB10023036300F0E0BB0120704754
:1013100010B50068114988421ED111480022418849
:10132000FF290BD20F4C43786354491C89B241808A
:101330000A2B09D162540121017005E042804FF46B
:1013400080710848FEF77AFF05490122BDE8104088
:10135000491C0548FFF7CEBF10BD00000014014036
:10136000000000206C0000206C0100202DE9F843F3
:10137000044690F84100984616460D46202802D0B3
:101380000220BDE8F88385B17EB100206064212091
:1013900084F84100FFF7FEF8A6848146E684A06841
:1013A0002027B0F5805F02D003E00120E9E7206943
:1013B00010B12E4600250EE000260CE080212046CC
:1013C00000F09FFBA8B9C6B116F8010B2168486070
:1013D000E08C401EE084E08C4B464FF00002CDF8DC
:1013E00000800028EAD14FF04001204600F089FB40
:1013F00040B184F841700320C3E735F8020BC0F315
:101400000800E3E784F841700020BAE77047FEE780
:1014100070B586B014216846FEF710FF1648002408
:10142000016841F080010160016801F080010591CF
:10143000016841F004010160016801F004010591B7
:10144000016841F00101016000680C4E00F00100EC
:101450004FF440750590012229463046FFF794F875
:1014600001200095CDE90104694630460394FEF75A
:101470009BFF06B070BD00003038024000080240FB
:10148000104810B50E4901604FF48271416000218F
:1014900002228160C0E9031201224261520282618C
:1014A0001022C0E90721416281620A21C162FFF76F
:1014B000B1FB002803D0BDE81040FEF705BF10BD0A
:1014C000003C004014000020124810B51049016093
:1014D0004FF4E1314160002181600C22C160C0E91C
:1014E00004128161C161FFF795FE08B1FEF7ECFEC1
:1014F000002201214720FFF7BBF84720FFF7AAF899
:10150000BDE81040012204490248FFF7F3BE000085
:10151000001401406C01002001000020FEE7FEE7FE
:1015200070470000F8B515460E460B46009204467B
:101530000122022100F02CF8A0B9134813490068D9
:10154000B0FBF1F04FF47A71484300906068B0F559
:10155000827F0DD13346002280212046009500F085
:1015600017F870B1606D40F0200060650320F8BD91
:10157000009830B1401E009020688068C04300068B
:10158000F6D50020F8BD00001000002000366E01E6
:101590002DE9F8431E46914688460446089DFEF70D
:1015A000F9FF401B351AFEF7F5FF0746264800688D
:1015B000C0F3CB3068430AE0701C09D0FEF7EAFFA5
:1015C000C01BA8420FD275B10098B8B3401E00905E
:1015D0002068816838EA010033D000214945EBD109
:1015E0000020BDE8F8832068416821F0E0014160F7
:1015F0006068B0F5827F0BD1A068B0F5004F02D0D3
:10160000B0F5806F04D12068016821F040010160CD
:10161000A06AB0F5005F09D12068016821F400518B
:1016200001602068016841F400510160012084F8E4
:101630005100002084F850000320D2E7FFE7002586
:10164000C6E70121CAE70000100000207047FEF73E
:10165000A7BF000030B593B030216846FEF7EEFD1D
:1016600014210CA8FEF7EAFD1E480024016841F091
:1016700080510160006800F0805011901A480168A4
:1016800021F4404141F4004101600068022500F46A
:101690004040119001200090000401908001CDE9AC
:1016A0000650082008904FF4A870099004200A9072
:1016B0000B906846FFF7F8F808B172B6FEE70F2006
:1016C000CDE90C054FF48050CDE90E4002210CA865
:1016D0001094FEF7FFFF002801D072B6FEE713B0AA
:1016E00030BD0000403802400070004002480168F0
:1016F00041F470010160704788ED00E008B10422F8
:1017000000E000220021084600F0A2B82DE9F041D7
:101710000122314D140221462846FEF735FF0A20EA
:10172000FEF730FE07220121002000F091F8002092
:10173000FFF7E4FF294A1021002000F089F8C322B6
:101740006C21002000F084F8254A7021002000F070
:101750007FF8244A1421002000F07AF84FF4202268
:101760006D21002000F074F805222321002000F0F4
:101770006FF841F2883632462421002000F068F8E4
:1017800000222521104600F063F8174F26213A4623
:10179000002000F05DF83A462821002000F058F8BB
:1017A00032462A21002000F053F80A222B21002083
:1017B00000F04EF84FF47A722C21002000F048F827
:1017C00000222721104600F043F821462846BDE8B4
:1017D000F0410022FEF7D8BE0008024002080700D0
:1017E0001E260CC4FFFF0F00400D030010B50400BF
:1017F00001D4024600E062420E48824200D902460D
:101800002721002000F024F8002C02DD4FF0010217
:1018100002E004DA4FF002024FF0200103E04FF043
:1018200000024FF02701BDE810404FF0000000F02B
:101830000FB8000020A10700002805D10A464FF488
:1018400000710248FEF7A0BE704700000008024089
:1018500010B586B00446100A8DF80F00100C8DF8F4
:101860000E00100E8DF80D0041F080008DF80C0078
:101870008DF8102000212046FFF7DEFF6420009045
:10188000052301AA03A90548FFF758FA01212046BC
:10189000FFF7D2FF9DF9040006B010BD1400002030
:1018A00010B5806B0021C185FFF756FB10BD0168A4
:1018B0000C3151E8002F22F4907241E80023002BF4
:1018C000F5D10168143151E8002F22F0010241E8FE
:1018D0000023002BF5D1016B012909D101680C31DE
:1018E00051E8002F22F0100241E80023002BF5D12F
:1018F000202180F8421000210163704708B590F85C
:101900004210222901D0022008BD82684FF4805382
:101910009A4201D1016921B1816A9A421BD04AB130
:101920000AE00268816A5268C2F308020A80816A8A
:10193000891C08E0026972B10268526802F07F02F5
:101940000A70816A491C8162C18D491E0904090C13
:10195000C18503D01BE002685268F1E70168CA68DC
:1019600022F02002CA600168CA6822F48072CA604C
:1019700001684A6922F001024A61202180F8421080
:1019800000214163026B012A03D0FFF7C1FC002054
:1019900008BD016301680C3151E8002F22F01002EC
:1019A00041E80023002BF5D101680A68D20602D570
:1019B0000A6849680091818DFFF7CCFAE7E70000DB
:1019C00070B5044600680169E26821F44051114392
:1019D00001612169A068E269084361691143084314
:1019E0002168CA6849F20C639A430243CA602068BE
:1019F0004169A26921F44071114341613149206874
:101A0000884202D03049884202D1FEF70DFF01E042
:101A1000FEF7FAFEE2690023192164253226B2F5A9
:101A2000004F626828D0A0FB0101930F9200FEF7DF
:101A3000CDFB0146B0FBF5F06FF01802504301EB0F
:101A4000800006EB0010B0FBF5F000F0F002B1FBF7
:101A5000F5F002EB0012B1FBF5F06FF018035843FC
:101A600001EB800006EB0010B0FBF5F000F00F007A
:101A700021681044886070BDA0FB010192185B4191
:101A8000FEF7A4FB0146B0FBF5F00201B1FBF5F057
:101A90006FF01803584301EB800006EBC000B0FB69
:101AA000F5F000F0F80002EB4002B1FBF5F058430E
:101AB00001EB800006EBC000B0FBF5F000F0070082
:101AC000D6E70000001001400014014081628285C9
:101AD000C28500214164222180F84210016921B1B0
:101AE0000168CA6842F48072CA6001684A6942F0BB
:101AF00001024A610068C16841F02001C160002014
:101B000070472DE9F843984617460D460446089E4F
:101B100024E0701C22D0FEF73DFDA0EB0800B0428F
:101B20001AD8CEB12068C168490717D5802D15D0C5
:101B3000402D13D00168C94309070FD4016800255F
:101B4000406800902046FFF7B2FE0820606484F8E9
:101B500040500120BDE8F8830320FBE720680068BF
:101B600035EA000004D00020B842D2D00020F1E7CE
:101B70000120F9E70148FFF70DBA00006C010020D1
:101B800010B504000AD0FEF764FB214682B2BDE81E
:101B900010404FF4FA630248FFF7E8BB10BD0000A5
:101BA0006C010020FEE70907090E002804DB00F1A4
:101BB000E02080F80014704700F00F0000F1E020F2
:101BC00080F8141D704702E008C8121F08C1002ADF
:101BD000FAD170477047002001E001C1121F002AAE
:101BE000FBD17047FEF7E4FCFFF734FDFFF710FC74
:101BF000FFF76AFCFFF744FCFFF788FD08A0FFF73A
:101C0000BFFF4FF4FA744CF250352046FEF7BAFB92
:101C10002846FFF7EBFD06A0FFF7B2FFF5E700004F
:101C2000544D4320496E697420446F6E650D0A005F
:101C30004D6F746F722052756E6E696E672E2E2E08
:101C40000D0A000000000000000000000102030473
:101C50000607080900000000010203047C1C0008BC
:101C60000000002014000000C61B0008901C0008A3
:101C700014000020A4050000D61B0008000000008E
:101C80000100000010000000000000000024F4002B
:040000050800019559
:00000001FF
